:100000000C942A000C9434000C9434000C943400AA
:100010000C9434000C9434000C9434000C94340090
:100020000C9434000C9434000C9434000C94340080
:100030000C9434000C9434000C9434000C94340070
:100040000C9434000C9434000C9434000C94340060
:100050000C94340011241FBECFE5D8E0DEBFCDBF25
:100060000E9436000C9484000C940000DF93CF9320
:10007000CDB7DEB7EAE3F0E01082E7E3F0E080E836
:100080008083E4E3F0E08FEF8083EAE3F0E09081A7
:10009000E7E3F0E08081891768F4EAE3F0E090811B
:1000A000E4E3F0E08081891728F4EBE3F0E08FEFE0
:1000B000808329C0E7E3F0E09081EAE3F0E080810B
:1000C000891768F4E7E3F0E09081E4E3F0E08081F1
:1000D000891728F4E8E3F0E08FEF808314C0E4E3AD
:1000E000F0E09081EAE3F0E08081891760F4E4E3D6
:1000F000F0E09081E7E3F0E08081891720F4E5E308
:0C010000F0E08FEF8083FFCFF894FFCF7A
:00000001FF
