:100000000C942A000C943F000C943F000C943F0089
:100010000C943F000C943F000C943F000C943F0064
:100020000C943F000C943F000C943F000C943F0054
:100030000C943F000C943F000C943F000C943F0044
:100040000C943F000C943F000C943F000C943F0034
:100050000C943F0011241FBECFE5D8E0DEBFCDBF1A
:1000600012E0A0E6B0E0EAE2F7E702C005900D92E8
:10007000AC3BB107D9F70E949D290C94933B0C949B
:100080000000EF92FF920F931F937B018C0120E001
:1000900030E040E05FE40E94261088238CF0C80125
:1000A000B70120E030E040E05FE40E949E0E0E9435
:1000B00086109B01AC01205030404040504806C0A3
:1000C000C801B7010E9486109B01AC01B901CA01A9
:1000D0001F910F91FF90EF900895AEE5B0E0E3E738
:1000E000F0E00C945C3BA8E04E010894811C911C4C
:1000F000F4016A2E11926A94E9F729833A834B83BB
:100100005C836D837E838F839887CE010996FC0183
:100110001192AA95E9F7A986BA86CB86DC86ED8688
:10012000FE860F87188B29843A844B845C84ED8487
:10013000FE840F85188969807A808B809C806DA6EB
:100140007EA68FA698AA6D807E808F809884E11409
:10015000F1040105110509F0B3C3621473048404AA
:10016000950408F03DC100E0201600E0300601E0F3
:10017000400600E0500688F41FEF211631044104C8
:10018000510439F030F048E0E42EF12C012D112D0E
:1001900018C0EE24FF24870114C020E0221620E0BE
:1001A000320620E0420621E0520630F038E1E32E2C
:1001B000F12C012D112D05C020E1E22EF12C012D95
:1001C000112DD201C1010E2C04C0B695A7959795AB
:1001D00087950A94D2F78E589E4FDC012C9180E2CD
:1001E00090E0A0E0B0E08E199F09A00BB10B7C015C
:1001F0008D01E21AF10801091109E114F104010568
:100200001105A1F10E2C04C0220C331C441C551CFA
:100210000A94D2F7A40193010E2C04C0220F331FBD
:10022000441F551F0A94D2F780E290E08E199F096F
:100230006DA47EA48FA498A804C096948794779404
:1002400067948A95D2F7622A732A842A952AADA4E4
:10025000BEA4CFA4D8A804C0AA0CBB1CCC1CDD1C17
:10026000EA94D2F7ADA6BEA6CFA6D8AA6201EE2424
:10027000FF24CDAADEAAEFAAF8AE92018101207078
:10028000307009AF1AAF2BAF3CAFC401B301A70167
:1002900096010E943A3B7B018C01C401B3012DA958
:1002A0003EA94FA958AD0E943A3BC901DA013C0171
:1002B0004D01C401B30129AD3AAD4BAD5CAD0E9417
:1002C000F43A9B01AC018701FF24EE24ADA4BEA447
:1002D000CFA4D8A8C601AA27BB2757016801A82A1E
:1002E000B92ACA2ADB2AA216B306C406D506E0F448
:1002F00008946108710881089108A20CB31CC41C01
:10030000D51CA214B304C404D50470F0A216B3061D
:10031000C406D50648F4089461087108810891085C
:10032000A20CB31CC41CD51CA21AB30AC40AD50A59
:10033000C601B5012DA93EA94FA958AD0E943A3B6F
:100340007B018C01C601B5012DA93EA94FA958AD6D
:100350000E943A3BC901DA015C016D01C601B50199
:1003600029AD3AAD4BAD5CAD0E94F43A9B01AC01B6
:100370008701FF24EE248DA59EA5AFA5B8A9A07086
:10038000B070E82AF92A0A2B1B2BE216F3060407A1
:100390001507C0F40894A108B108C108D108E20CFF
:1003A000F31C041D151DE214F3040405150550F09B
:1003B000E216F3060407150728F40894A108B1080B
:1003C000C108D108D3019927882786017501E82A39
:1003D000F92A0A2B1B2BE9AAFAAA0BAB1CABCFC438
:1003E000211431044104510471F461E070E080E0B3
:1003F00090E020E030E040E050E00E943A3BC9014C
:10040000DA011C012D0100E0201600E0300601E0B9
:10041000400600E0500688F41FEF21163104410425
:10042000510431F028F048E050E060E070E017C07F
:1004300040E050E060E070E012C020E0221620E0D2
:10044000320620E0420621E0520628F048E150E062
:1004500060E070E004C040E150E060E070E0D20194
:10046000C101042E04C0B695A795979587950A9467
:10047000D2F78E589E4FDC012C91E0E2EE2EF12C4B
:10048000012D112DD801C701841B950BA60BB70BAD
:10049000821B9109A109B1090097A105B10561F479
:1004A00064015301A218B308C408D50831E0632ED3
:1004B000712C812C912C1EC16F968FAF6F97082ED7
:1004C00004C0220C331C441C551C0A94D2F7EE2D98
:1004D000E81B640153010E2E04C0D694C794B79450
:1004E000A7940A94D2F7A40193016F960FAC6F976B
:1004F00004C0220F331F441F551F0A94D2F76DA466
:100500007EA48FA498A80E2E04C096948794779406
:1005100067940A94D2F784017301E22AF32A042B28
:10052000152BE9A6FAA60BA71CA73201882499244B
:10053000920181012070307021960CAF1DAF2EAF5B
:100540003FAF2197C601B501A40193010E943A3B38
:100550007B018C01C601B501A40193010E943A3BC5
:10056000C901DA0125968CAF9DAFAEAFBFAF25971D
:10057000BC01CD0121962CAD3DAD4EAD5FAD2197B7
:100580000E94F43A9B01AC018701FF24EE24A9A448
:10059000BAA4CBA4DCA4C601AA27BB275C016D01C9
:1005A000AE28BF28C02AD12AA216B306C406D50693
:1005B00060F525966CAD7DAD8EAD9FAD25976150F4
:1005C00070408040904025966CAF7DAF8EAF9FAF5E
:1005D0002597A20CB31CC41CD51CA214B304C404DC
:1005E000D50498F0A216B306C406D50670F461507F
:1005F00070408040904025966CAF7DAF8EAF9FAF2E
:100600002597A20CB31CC41CD51CA21AB30AC40A99
:10061000D50AC601B501A40193010E943A3B7B01B2
:100620008C01C601B501A40193010E943A3BC901A6
:10063000DA013C014D01C401B30121962CAD3DAD61
:100640004EAD5FAD21970E94F43A9B01AC0187014A
:10065000FF24EE2489A59AA5ABA5BCA5A070B07017
:1006600057016801A82AB92ACA2ADB2AA216B306AA
:10067000C406D506E0F40894610871088108910861
:10068000A20CB31CC41CD51CA214B304C404D5040E
:1006900070F0A216B306C406D50648F408946108A3
:1006A000710881089108A20CB31CC41CD51C8DA52F
:1006B0009EA5AFA5B8A96F960FAC6F9704C0880F21
:1006C000991FAA1FBB1F0A94D2F78DA79EA7AFA799
:1006D000B8ABA21AB30AC40AD50A2596ECACFDAC95
:1006E0000EAD1FAD2597D70199278827682A792A4B
:1006F0008A2A9B2A82012227332729960CAF1DAF15
:100700002EAF3FAF2997A2019101407050702D96F6
:100710002CAF3DAF4EAF5FAF2D97C601B501299607
:100720002CAD3DAD4EAD5FAD29970E943A3B7B01AC
:100730008C01C601B50129962CAD3DAD4EAD5FAD26
:1007400029970E943A3BC901DA0161968CAF9DAFAF
:10075000AEAFBFAF6197BC01CD012D962CAD3DADC5
:100760004EAD5FAD2D970E94F43A9B01AC0187011D
:10077000FF24EE24ADA4BEA4CFA4D8A8C601AA2706
:10078000BB2757016801A82AB92ACA2ADB2AA21660
:10079000B306C406D50660F561966CAD7DAD8EAD31
:1007A0009FAD6197615070408040904061966CAF02
:1007B0007DAF8EAF9FAF6197A20CB31CC41CD51C3C
:1007C000A214B304C404D50498F0A216B306C40658
:1007D000D50670F4615070408040904061966CAFD7
:1007E0007DAF8EAF9FAF6197A20CB31CC41CD51C0C
:1007F000A21AB30AC40AD50AC601B50129962CADBE
:100800003DAD4EAD5FAD29970E943A3B7B018C0117
:10081000C601B50129962CAD3DAD4EAD5FAD299712
:100820000E943A3BC901DA015C016D01C601B501C4
:100830002D962CAD3DAD4EAD5FAD2D970E94F43A97
:100840009B01AC018701FF24EE248DA59EA5AFA5D9
:10085000B8A9A070B070E82AF92A0A2B1B2BE2165F
:10086000F30604071507C0F40894A108B108C108ED
:10087000D108E20CF31C041D151DE214F304040559
:10088000150550F0E216F3060407150728F408943E
:10089000A108B108C108D1086196ECACFDAC0EAD61
:1008A0001FAD6197D7019927882796018501082BED
:1008B000192B2A2B3B2B09AB1AAB2BAB3CAB62C2DF
:1008C0006E147F048006910608F451C220E0E216FF
:1008D00020E0F20621E0020720E0120788F43FEF53
:1008E000E316F1040105110531F028F048E050E06D
:1008F00060E070E017C040E050E060E070E012C0DF
:1009000040E0E41640E0F40640E0040741E014074C
:1009100028F048E150E060E070E004C040E150E0C1
:1009200060E070E0D801C701042E04C0B695A79519
:10093000979587950A94D2F78E589E4FDC012C919B
:1009400030E2A32EB12CC12CD12CD601C501841BC1
:10095000950BA60BB70B821B9109A109B109009752
:10096000A105B10589F4E614F7040805190508F492
:10097000F2C16DA47EA48FA498A8621473048404A9
:10098000950408F0E8C1F3C16E968FAF6E97082EFC
:1009900004C0EE0CFF1C001F111F0A94D2F76A2D31
:1009A000681BD201C101062E04C0B695A795979584
:1009B00087950A94D2F75C016D01AE28BF28C02A42
:1009C000D12AADA2BEA2CFA2D8A6720161016E96B5
:1009D0000FAC6E9704C0CC0CDD1CEE1CFF1C0A94FF
:1009E000D2F7C9A2DAA2EBA2FCA264015301062E3F
:1009F00004C0D694C794B794A7940A94D2F7D401AC
:100A0000C3016E960FAC6E9704C0880F991FAA1F82
:100A1000BB1F0A94D2F7EDA4FEA40FA518A904C029
:100A200016950795F794E7946A95D2F73701480130
:100A3000682A792A8A2A9B2A6D8E7E8E8F8E98A2AA
:100A4000EDA0FEA00FA118A53801882499249801D3
:100A500087012070307065960CAF1DAF2EAF3FAF91
:100A60006597C601B501A40193010E943A3B7B0141
:100A70008C01C601B501A40193010E943A3BC90152
:100A8000DA011C012D01C201B10165962CAD3DAD0D
:100A90004EAD5FAD65970E94F43A9B01AC018701B2
:100AA000FF24EE24AD8CBE8CCF8CD8A0C601AA2723
:100AB000BB2757016801A82AB92ACA2ADB2AA2162D
:100AC000B306C406D50600F508942108310841088C
:100AD0005108EDA0FEA00FA118A5AE0CBF1CC01EB2
:100AE000D11EAE14BF04C006D10670F0A216B30624
:100AF000C406D50648F40894210831084108510875
:100B0000AE0CBF1CC01ED11EA21AB30AC40AD50A5D
:100B1000C601B501A40193010E943A3B7B018C01FF
:100B2000C601B501A40193010E943A3BC901DA0153
:100B30003C014D01C401B30165962CAD3DAD4EADF8
:100B40005FAD65970E94F43A9B01AC018701FF24D9
:100B5000EE248D8D9E8DAF8DB8A1A070B070570121
:100B60006801A82AB92ACA2ADB2AA216B306C40633
:100B7000D50600F5089461087108810891086DA1F7
:100B80007EA18FA198A5A60EB71EC81ED91EA616B7
:100B9000B706C806D90670F0A216B306C406D50675
:100BA00048F408946108710881089108A60EB71EE0
:100BB000C81ED91ED601C501821B930BA40BB50B11
:100BC000898F9A8FAB8FBC8FD101992788276401B9
:100BD0005301A82AB92ACA2ADB2AA9AABAAACBAAE7
:100BE000DCAA860175012FEF3FEF40E050E0E222E2
:100BF000F32204231523A601662777276D964CAFB1
:100C00005DAF6EAF7FAF6D97A9A0BAA0CBA0DCA0FF
:100C10006FEF7FEF80E090E0A622B722C822D922B2
:100C200089A19AA1ABA1BCA11D0144245524C801EE
:100C3000B701A60195010E94F43A69966CAF7DAFA9
:100C40008EAF9FAF6997C801B701A20191010E94C1
:100C5000F43A3B014C016D966CAD7DAD8EAD9FAD10
:100C60006D97A60195010E94F43A7B018C016D9667
:100C70006CAD7DAD8EAD9FAD6D97A20191010E94CF
:100C8000F43A5B016C01A8019701260D371D481D40
:100C9000591D69966CAC7DAC8EAC9FAC6997C40154
:100CA000AA27BB27280F391F4A1F5B1F2E153F0598
:100CB0004007510748F4E12CF12C61E0062F112D7B
:100CC000AE0CBF1CC01ED11ECA01AA27BB27BC0187
:100CD000CD016A0D7B1D8C1D9D1D698C7A8C8B8CC2
:100CE0009C8C661677068806990640F1661577058E
:100CF0008805990509F043C0D90199278827699685
:100D00002CAD3DAD4EAD5FAD699740705070820F18
:100D1000931FA41FB51F2DA53EA54FA558A96E96DC
:100D20000FAC6E9704C0220F331F441F551F0A9447
:100D3000D2F7281739074A075B0708F509A91AA946
:100D40002BA93CA9015010402040304009AB1AAB00
:100D50002BAB3CAB14C066247724430121E030E088
:100D600040E050E029AB3AAB4BAB5CAB0BC0662428
:100D70007724430119AA1AAA1BAA1CAA03C0662435
:100D800077244301FE01719688E0DF011D928A9568
:100D9000E9F7A9A8BAA8CBA8DCA8A98ABA8ACB8AFD
:100DA000DC8A6D8A7E8A8F8A988E29A93A894B8936
:100DB0005C89662D7E898F89988DC25ADF4FE2E16A
:100DC0000C94783BABE5B0E0E8EEF6E00C945C3BCD
:100DD000A8E04E010894811C911CF4016A2E119226
:100DE0006A94E9F729833A834B835C836D837E831E
:100DF0008F839887CE010996FC011192AA95E9F795
:100E0000A986BA86CB86DC86ED86FE860F87188B90
:100E100029843A844B845C84AD84BE84CF84D88892
:100E200029813A814B815C8169962FAF69976A96D7
:100E30003FAF6A976B964FAF6B976C965FAF6C97AF
:100E40006C966CAC7DAC8EAC9FAC6C9769AA7AAAA0
:100E50008BAA9CAA6D817E818F8198853B014C0174
:100E60006DAA7EAA8FAA98AEA114B104C104D104C0
:100E700009F004C3621473048404950408F000C1EB
:100E800000E0201600E0300601E0400600E05006D9
:100E900088F41FEF211631044104510439F030F079
:100EA00088E0E82EF12C012D112D18C0EE24FF242E
:100EB000870114C040E0241640E0340640E04406B8
:100EC00041E0540630F0B8E1EB2EF12C012D112D4C
:100ED00005C0A0E1EA2EF12C012D112DD201C10196
:100EE0000E2C04C0B695A795979587950A94D2F7CE
:100EF0008E589E4FDC012C9180E290E0A0E0B0E0A3
:100F00008E199F09A00BB10B5C016D01A21AB108EB
:100F1000C108D108A9AEBAAECBAEDCAEA114B10403
:100F2000C104D10409F43FC069AD062E04C0220CEF
:100F3000331C441C551C0A94D2F7A4019301062EBD
:100F400004C0220F331F441F551F0A94D2F780E2BA
:100F500090E08A199B096C96CCACDDACEEACFFAC92
:100F60006C9704C0F694E794D794C7948A95D2F707
:100F700087017601E22AF32A042B152BEDAAFEAA9B
:100F80000FAB18AF6C968CAD9DADAEADBFAD6C9791
:100F900004C0880F991FAA1FBB1F6A95D2F789AB9F
:100FA0009AABABABBCAB320188249924B201A1014E
:100FB0006070707021964CAF5DAF6EAF7FAF2197C0
:100FC0006DA97EA98FA998ADA40193010E943A3B17
:100FD0007B018C016DA97EA98FA998ADA401930115
:100FE0000E943A3BCA01B90121962CAD3DAD4EADF0
:100FF0005FAD21970E94F43A9B01AC018701FF2469
:10100000EE24A9A8BAA8CBA8DCA8C601AA27BB27AA
:1010100057016801A82AB92ACA2ADB2AA216B306F0
:10102000C406D50690F4A20CB31CC41CD51CA21493
:10103000B304C404D50448F0A216B306C406D5060A
:1010400020F4A20CB31CC41CD51CA21AB30AC40AF7
:10105000D50AC601B501A40193010E943A3B7B0168
:101060008C01C601B501A40193010E943A3BCA015B
:10107000B90121962CAD3DAD4EAD5FAD2197BAC102
:10108000211431044104510471F461E070E080E006
:1010900090E020E030E040E050E00E943A3BC9019F
:1010A000DA011C012D0100E0201600E0300601E00D
:1010B000400600E0500688F41FEF21163104410479
:1010C000510439F030F068E0E62EF12C012D112D9D
:1010D00018C0EE24FF24870114C040E0241640E02D
:1010E000340640E0440641E0540630F058E1E52E75
:1010F000F12C012D112D05C040E1E42EF12C012D24
:10110000112DD201C1010E2C04C0B695A79597955B
:1011100087950A94D2F78E589E4FDC012C9130E2CD
:10112000A32EB12CC12CD12CD601C5018E199F093B
:10113000A00BB10B7C018D01E21AF1080109110924
:10114000E9AEFAAE0BAF1CAFE114F10401051105D5
:1011500039F464015301A218B308C408D508E2C0E9
:10116000F9AC6896FFAE68970F2C04C0220C331CB4
:10117000441C551C0A94D2F78A2D8F19640153011F
:10118000082E04C0D694C794B794A7940A94D2F7B3
:10119000A401930104C0220F331F441F551FFA946A
:1011A000D2F76C966CAC7DAC8EAC9FAC6C9704C0E7
:1011B00096948794779467948A95D2F78401730103
:1011C000E22AF32A042B152BEDA6FEA60FA718ABD7
:1011D000320188249924B201A101607070702596B3
:1011E0004CAF5DAF6EAF7FAF2597C601B501A401CF
:1011F00093010E943A3B7B018C01C601B501A40119
:1012000093010E943A3BCA01B90125962CAD3DAD30
:101210004EAD5FAD25970E94F43A9B01AC0187016A
:10122000FF24EE24ADA4BEA4CFA4D8A8C601AA274B
:10123000BB275C016D01AE28BF28C02AD12AA216A7
:10124000B306C406D50690F4A20CB31CC41CD51C6E
:10125000A214B304C404D50448F0A216B306C4060D
:10126000D50620F4A20CB31CC41CD51CA21AB30AC8
:10127000C40AD50AC601B501A40193010E943A3BF4
:101280007B018C01C601B501A40193010E943A3B88
:10129000CA01B90125962CAD3DAD4EAD5FAD259788
:1012A0000E94F43A9B01AC018701FF24EE248DA536
:1012B0009EA5AFA5B8A9A070B07057016801A82A73
:1012C000B92ACA2ADB2AA216B306C406D50690F4A8
:1012D000A20CB31CC41CD51CA214B304C404D504B2
:1012E00048F0A216B306C406D50620F4A20CB31C1F
:1012F000C41CD51C6C96ECACFDAC0EAD1FAD6C9750
:1013000068960FAC689704C0EE0CFF1C001F111FFD
:101310000A94D2F7E9AAFAAA0BAB1CABA21AB30A39
:10132000C40AD50A320188249924B201A10160704F
:10133000707029964CAF5DAF6EAF7FAF2997C60135
:10134000B501A40193010E943A3B7B018C01C601C7
:10135000B501A40193010E943A3BCA01B901299643
:101360002CAD3DAD4EAD5FAD29970E94F43A9B0187
:10137000AC018701FF24EE24A9A8BAA8CBA8DCA859
:10138000C601AA27BB2757016801A82AB92ACA2A79
:10139000DB2AA216B306C406D50690F4A20CB31C31
:1013A000C41CD51CA214B304C404D50448F0A2166E
:1013B000B306C406D50620F4A20CB31CC41CD51C6D
:1013C000A21AB30AC40AD50AC601B501A401930141
:1013D0000E943A3B7B018C01C601B501A401930137
:1013E0000E943A3BCA01B90129962CAD3DAD4EADE4
:1013F0005FAD29970E94F43A9B01AC018701FF245D
:10140000EE2489A99AA9ABA9BCA9A070B070E82A5A
:10141000F92A0A2B1B2BE216F3060407150790F492
:10142000E20CF31C041D151DE214F304040515055C
:1014300048F0E216F3060407150720F4E20CF31C4B
:10144000041D151DE21AF30A040B150BD801C70180
:1014500009AC04C0B695A795979587950A94D2F7DD
:10146000898B9A8BAB8BBC8B1D8A1E8A1F8A188E28
:10147000282F3A894B895C896D890CC36A147B04D7
:101480008C049D0408F409C300E0A01600E0B00637
:1014900001E0C00600E0D00688F41FEFA116B104F9
:1014A000C104D10439F030F028E0E22EF12C012DF6
:1014B000112D18C0EE24FF24870114C040E0A416AB
:1014C00040E0B40640E0C40641E0D40630F098E1C4
:1014D000E92EF12C012D112D05C080E1E82EF12C13
:1014E000012D112DD601C5010E2C04C0B695A7956E
:1014F000979587950A94D2F78E589E4FDC012C91D0
:1015000080E290E0A0E0B0E08E199F09A00BB10B43
:10151000821B9109A109B1090097A105B10509F044
:101520004FC0A614B704C804D90458F06C96ECACAC
:10153000FDAC0EAD1FAD6C97E214F3040405150568
:1015400068F16C96ECACFDAC0EAD1FAD6C97E2187B
:10155000F30804091509A40193012A193B094C0950
:101560005D09AA24BB2465016C966CAD7DAD8EAD82
:101570009FAD6C976E157F058007910728F4B1E049
:10158000AB2EB12CC12CD12CDA01C9018A199B09CF
:10159000AC09BD098DAB9EABAFABB8AFE98AFA8A97
:1015A0000B8B1C8B6DA87EA88FA898AC6D8A7E8A49
:1015B0008F8A988E2E2D3A894B895C896DA96AC2D3
:1015C00067968FAF6797A6019501082E04C0220F7A
:1015D000331F441F551F0A94D2F7A0E2AA2EA81A5F
:1015E0006696AFAE6697D201C10104C0B695A795C5
:1015F00097958795AA94D2F76C017D01C22AD32AC8
:10160000E42AF52AC9A6DAA6EBA6FCA68201710196
:1016100067960FAC679704C0EE0CFF1C001F111FEC
:101620000A94D2F7EDA2FEA20FA318A764015301FA
:1016300066960FAC669704C0D694C794B794A794E7
:101640000A94D2F7A401930167960FAC679704C080
:10165000220F331F441F551F0A94D2F76C968CAD8E
:101660009DADAEADBFAD6C9766960FAC669704C0EE
:10167000B695A795979587950A94D2F73C014D01A9
:10168000622A732A842A952A69A27AA28BA29CA232
:101690006C96ECACFDAC0EAD1FAD6C9767960FACC5
:1016A000679704C0EE0CFF1C001F111F0A94D2F7AD
:1016B000ED8EFE8E0F8F18A349A55AA56BA57CA5AC
:1016C0003B0188249924607070702D964CAF5DAFFB
:1016D0006EAF7FAF2D97C601B501A40193010E94A3
:1016E0003A3B7B018C01C601B501A40193010E9424
:1016F0003A3BC901DA011C012D01C201B1012D964D
:101700002CAD3DAD4EAD5FAD2D970E94F43A9B01DF
:10171000AC018701FF24EE24A9A0BAA0CBA0DCA0D5
:10172000C601AA27BB2757016801A82AB92ACA2AD5
:10173000DB2AA216B306C406D50600F508942108D4
:10174000310841085108E9A4FAA40BA51CA5AE0C68
:10175000BF1CC01ED11EAE14BF04C006D10670F05F
:10176000A216B306C406D50648F408942108310829
:1017700041085108AE0CBF1CC01ED11EA21AB30AEC
:10178000C40AD50AC601B501A40193010E943A3BDF
:101790007B018C01C601B501A40193010E943A3B73
:1017A000C901DA013C014D01C401B3012D962CADF4
:1017B0003DAD4EAD5FAD2D970E94F43A9B01AC015B
:1017C0008701FF24EE2489A19AA1ABA1BCA1A0703E
:1017D000B07057016801A82AB92ACA2ADB2AA216C2
:1017E000B306C406D50600F508946108710881089F
:1017F000910869A57AA58BA59CA5A60EB71EC81E43
:10180000D91EA616B706C806D90670F0A216B306EA
:10181000C406D50648F40894610871088108910847
:10182000A60EB71EC81ED91ED601C501821B930B7A
:10183000A40BB50B898F9A8FAB8FBC8FD1019927E1
:10184000882784017301E82AF92A0A2B1B2B4FEF02
:10185000A42E4FEFB42EC12CD12CAE20BF20C0221D
:10186000D1227801002711276DA07EA08FA098A417
:101870004FEF5FEF60E070E06422752286229722CE
:101880008DA19EA1AFA1B8A5BD0188279927659616
:101890006CAF7DAF8EAF9FAF6597C601B501A40158
:1018A00093010E94F43A61966CAF7DAF8EAF9FAF0B
:1018B0006197C601B50165962CAD3DAD4EAD5FADEE
:1018C00065970E94F43A1B012C01C801B701A401DD
:1018D00093010E94F43A5B016C01C801B70165965F
:1018E0002CAD3DAD4EAD5FAD65970E94F43A7B01E6
:1018F0008C01A6019501220D331D441D551D6196D5
:101900006CAC7DAC8EAC9FAC6197C401AA27BB27A1
:10191000280F391F4A1F5B1F2A153B054C055D0523
:1019200048F4812C912CE1E0AE2EB12CE80CF91C8E
:101930000A1D1B1DCA01AA27BB2757016801A80E53
:10194000B91ECA1EDB1EA9013327222761968CAD62
:101950009DADAEADBFAD6197A070B070280F391FBF
:101960004A1F5B1FE98CFA8C0B8D1C8DEA14FB045B
:101970000C051D0570F0AE14BF04C006D10669F554
:101980006D8D7E8D8F8D98A16217730784079507E3
:1019900020F5DA01C9016DA07EA08FA098A4861958
:1019A0009709A809B909E9A4FAA40BA51CA5AE18C2
:1019B000BF08C00AD10AEE24FF248701281739077F
:1019C0004A075B0728F421E0E22EF12C012D112DAE
:1019D000AE18BF08C00AD10A02C0DA01C9016D8C75
:1019E0007E8C8F8C98A0681A790A8A0A9B0A498D86
:1019F0005A8D6B8D7C8D4A195B096C097D095A01E2
:101A00006B012224332421016D8D7E8D8F8D98A151
:101A1000661577058805990528F481E0282E312C74
:101A2000412C512C86017501E218F30804091509AF
:101A3000A801970166960FAC669704C0220F331F6A
:101A4000441F551F0A94D2F7D401C30167960FAC07
:101A5000679704C0B695A795979587950A94D2F78E
:101A6000282B392B4A2B5B2B298B3A8B4B8B5C8B8E
:101A700067960FAC679704C016950795F794E7949F
:101A80000A94D2F7ED8AFE8A0F8B188F3A894B8918
:101A90005C896E2D7E898F89988DC55ADF4FE2E172
:101AA0000C94783BA0E0B0E0E8E5FDE00C945C3BF2
:101AB000DC012B01FA019C91923008F439C1EB0151
:101AC0008881823008F433C1943069F4843009F09D
:101AD0002FC111969C9111978981981709F428C1FB
:101AE000AAE6B1E025C1843009F421C18230A9F40D
:101AF000923009F01DC19A01AD0188E0EA01099018
:101B0000AE01E90109929E018150C1F7E20189818C
:101B100011969C918923818308C1923009F407C1F1
:101B200012962D903C901397EB018A819B8114961D
:101B3000AD90BD90CD90DC901797EC80FD800E812C
:101B40001F819101281B390BB90137FF04C066279B
:101B50007727621B730B603271050CF061C012169F
:101B600013066CF537014801062E04C0969487943D
:101B7000779467940A94D2F721E030E040E050E097
:101B800004C0220F331F441F551F6A95D2F72150FE
:101B90003040404050402E213F2140235123211509
:101BA00031054105510521F021E030E040E050E0F1
:101BB00079018A01E628F728082919293CC0232B36
:101BC000D1F1260E371E35014601062E04C096942B
:101BD0008794779467940A94D2F721E030E040E04C
:101BE00050E004C0220F331F441F551F6A95D2F7DF
:101BF00021503040404050402A213B214C215D2162
:101C0000211531054105510521F021E030E040E08A
:101C100050E059016A01A628B728C828D9280BC066
:101C2000821593052CF01C01AA24BB24650103C076
:101C3000EE24FF24870111969C91D20111968C917C
:101C4000981709F445C0992339F0A80197012A197A
:101C50003B094C095D0906C0A60195012E193F09F3
:101C6000400B510B57FD08C011823382228224831E
:101C70003583468357831DC081E08183338222826E
:101C800088279927DC01821B930BA40BB50B848357
:101C90009583A683B7830DC0220F331F441F551FA2
:101CA000248335834683578382819381019793836D
:101CB00082832481358146815781DA01C9010197E8
:101CC000A109B1098F5F9F4FAF4FBF4328F30BC0EE
:101CD000918333822282EA0CFB1C0C1D1D1DE482C1
:101CE000F5820683178383E08083248135814681D2
:101CF000578157FF1AC0C901AA2797FDA095BA2F8F
:101D000081709070A070B070569547953795279563
:101D1000822B932BA42BB52B84839583A683B78327
:101D200082819381019693838283DF0101C0D20176
:101D3000CD01CDB7DEB7E2E10C94783BA0E2B0E094
:101D4000E4EAFEE00C94683B69837A838B839C838E
:101D50002D833E834F835887E9E0EE2EF12CEC0E65
:101D6000FD1ECE010196B7010E94AF118E010F5EDC
:101D70001F4FCE010596B8010E94AF118A8991E0EC
:101D800089278A8BC701B801AE01475E5F4F0E9469
:101D9000520D0E94DA10A096E6E00C94843BA0E27B
:101DA000B0E0E5EDFEE00C94683B69837A838B83B9
:101DB0009C832D833E834F835887F9E0EF2EF12CCF
:101DC000EC0EFD1ECE010196B7010E94AF118E01EF
:101DD0000F5E1F4FCE010596B8010E94AF11C701DB
:101DE000B801AE01475E5F4F0E94520D0E94DA10AB
:101DF000A096E6E00C94843BA0E2B0E0E2E0FFE0D5
:101E00000C945C3B69837A838B839C832D833E8314
:101E10004F835887CE010196BE01675F7F4F0E94B6
:101E2000AF11CE010596BE016F5E7F4F0E94AF11CC
:101E30009985923088F089898230C8F0943019F4FD
:101E4000823051F404C0843029F4923081F48AE65F
:101E500091E0C6C0923049F420E09A858A899813AF
:101E600021E02A87CE010996BBC0823049F420E0E8
:101E70009A858A89981321E02A8BCE014196B0C0B9
:101E80002D843E844F8458886D887E888F88988CF6
:101E9000EE24FF248701AA24BB24650140E050E022
:101EA00060E070E0E0E0F0E0C10181709070892BAB
:101EB000E9F0E60CF71C081D191D9A01AB012A0D6B
:101EC0003B1D4C1D5D1D80E090E0A0E0B0E0E614FD
:101ED000F7040805190520F481E090E0A0E0B0E0E7
:101EE000BA01A901480F591F6A1F7B1FAA0CBB1C0E
:101EF000CC1CDD1C97FE08C081E090E0A0E0B0E0C3
:101F0000A82AB92ACA2ADB2A3196E032F10549F01B
:101F1000660C771C881C991C569447943794279418
:101F2000C3CFFA85EA892B893C898B859C85280F4C
:101F3000391F2E5F3F4F17C0CA0181709070892BE7
:101F400061F016950795F794E79480E090E0A0E0A3
:101F5000B0E8E82AF92A0A2B1B2B76956795579546
:101F600047952F5F3F4F77FDE7CF0CC0440F551FBC
:101F7000661F771F17FD4160EE0CFF1C001F111F2D
:101F800021503040403090E0590790E0690790E4DC
:101F9000790760F32B8F3C8FDB01CA018F7790703C
:101FA000A070B07080349105A105B10561F447FDC2
:101FB0000AC0E114F1040105110529F0405C5F4FEE
:101FC0006F4F7F4F40781A8EFE1711F081E08A8F95
:101FD0004D8F5E8F6F8F78A383E0898FCE014996F6
:101FE0000E94DA10A096E2E10C94783BA8E1B0E000
:101FF000ECEFFFE00C94683B69837A838B839C83CE
:102000002D833E834F83588789E0E82EF12CEC0E18
:10201000FD1ECE010196B7010E94AF118E010F5E29
:102020001F4FCE010596B8010E94AF1189858230FD
:1020300040F08989823028F0C701B8010E94271238
:1020400001C08FEF6896E6E00C94843BA8E1B0E015
:10205000ECE2F0E10C94683B69837A838B839C8388
:102060002D833E834F83588789E0E82EF12CEC0EB8
:10207000FD1ECE010196B7010E94AF118E010F5EC9
:102080001F4FCE010596B8010E94AF11898582309D
:1020900040F08989823028F0C701B8010E942712D8
:1020A00001C08FEF6896E6E00C94843BA8E1B0E0B5
:1020B000ECE5F0E10C94683B69837A838B839C8325
:1020C0002D833E834F83588789E0E82EF12CEC0E58
:1020D000FD1ECE010196B7010E94AF118E010F5E69
:1020E0001F4FCE010596B8010E94AF11898582303D
:1020F00040F08989823028F0C701B8010E94271278
:1021000001C081E06896E6E00C94843BACE0B0E06E
:10211000ECE8F0E10C946C3B69837A838B839C83BD
:10212000CE010196BE016B5F7F4F0E94AF118D8182
:10213000823061F1823050F1843021F48E81882325
:1021400051F12EC02F81388537FD20C06E812F318F
:1021500031051CF06623F9F023C08EE190E0821B6C
:10216000930B29853A854B855C8504C05695479528
:10217000379527958A95D2F76623B1F0509540950B
:10218000309521953F4F4F4F5F4F0EC020E030E01C
:1021900040E050E009C02FEF3FEF4FEF5FE704C092
:1021A00020E030E040E050E8B901CA012C96E2E0BE
:1021B0000C94883BDF92EF92FF920F931F93FC01E8
:1021C000E480F58006811781D1808081823048F4D7
:1021D00080E090E0A0E1B0E0E82AF92A0A2B1B2B6E
:1021E000A5C0843009F49FC0823021F4EE24FF247E
:1021F000870105C0E114F1040105110519F4E0E0BF
:10220000F0E096C0628173819FEF623879070CF02D
:102210005BC022E83FEF261B370B2A3131052CF03B
:1022200020E030E040E050E02AC0B801A701022ED3
:1022300004C076956795579547950A94D2F781E043
:1022400090E0A0E0B0E004C0880F991FAA1FBB1F58
:102250002A95D2F70197A109B1098E219F21A023C8
:10226000B1230097A105B10521F081E090E0A0E045
:10227000B0E09A01AB01282B392B4A2B5B2BDA01FA
:10228000C9018F779070A070B07080349105A1055E
:10229000B10539F427FF09C0205C3F4F4F4F5F4F16
:1022A00004C0215C3F4F4F4F5F4FE0E0F0E0203033
:1022B000A0E03A07A0E04A07A0E45A0710F0E1E0E6
:1022C000F0E079018A0127C06038710564F5FB01EF
:1022D000E158FF4FD801C7018F779070A070B070A0
:1022E00080349105A105B10539F4E7FE0DC080E405
:1022F00090E0A0E0B0E004C08FE390E0A0E0B0E0A8
:10230000E80EF91E0A1F1B1F17FF05C0169507953B
:10231000F794E794319687E016950795F794E7943C
:102320008A95D1F705C0EE24FF248701EFEFF0E096
:102330006E2F679566276795902F9F77D794DD243A
:10234000D7948E2F8695492F462B582F5D29B7019C
:10235000CA011F910F91FF90EF90DF900895FC014B
:10236000DB01408151812281622F6F7770E0221F53
:102370002227221F9381892F880F822B282F30E05C
:10238000991F9927991F11969C9311972115310533
:10239000A9F5411551056105710511F482E037C0B9
:1023A00082E89FEF13969C938E9312979A01AB014C
:1023B00067E0220F331F441F551F6A95D1F783E052
:1023C0008C930DC0220F331F441F551F12968D9101
:1023D0009C911397019713969C938E93129720309C
:1023E00080E0380780E0480780E4580758F31496E7
:1023F0002D933D934D935C93179708952F3F31058F
:1024000079F4411551056105710519F484E08C9347
:10241000089564FF03C081E08C9312C01C9210C029
:102420002F57304013963C932E93129783E08C9352
:1024300087E0440F551F661F771F8A95D1F7706498
:1024400014964D935D936D937C93179708951F9306
:10245000DC01FB019C91923008F447C080818230FE
:1024600008F443C0943051F411961C91843099F5CE
:102470008181682F70E0611B71093FC0843021F0B9
:10248000923031F48230B9F18181882389F12DC0F5
:1024900011961C9111978230F1F081811817D9F4AF
:1024A00012962D913C911397828193818217930705
:1024B00094F028173907BCF014968D919D910D90DA
:1024C000BC91A02D24813581468157812817390779
:1024D0004A075B0718F4112341F00AC082179307DB
:1024E000A407B50740F4112319F061E070E005C0BE
:1024F0006FEF7FEF02C060E070E0CB011F910895A5
:10250000DF93CF93CDB7DEB727970FB6F894DEBF32
:102510000FBECDBF89836A834B838B81813009F0E5
:1025200070C08981282F30E03F832E838E819F8168
:102530008230910551F12E813F812330310534F4F1
:102540008E819F818130910561F0D3C02E813F81C2
:102550002330310571F18E819F8184309105E9F13D
:10256000C8C0AAE3B0E0EAE3F0E08081482F8A81A6
:10257000282F30E081E090E0022E02C0880F991FE2
:102580000A94E2F7842B8C93B4C0A7E3B0E0E7E3AE
:10259000F0E08081482F8A81282F30E081E090E0B0
:1025A000022E02C0880F991F0A94E2F7842B8C93A5
:1025B000A0C0A4E3B0E0E4E3F0E08081482F8A818A
:1025C000282F30E081E090E0022E02C0880F991F92
:1025D0000A94E2F7842B8C938CC0A1E3B0E0E1E392
:1025E000F0E08081482F8A81282F30E081E090E060
:1025F000022E02C0880F991F0A94E2F7842B8C9355
:1026000078C08B81882309F074C08981282F30E03D
:102610003D832C838C819D818230910561F12C81D9
:102620003D812330310534F48C819D8181309105C9
:1026300069F05FC02C813D812330310589F18C81A7
:102640009D818430910509F440C053C0AAE3B0E0F5
:10265000EAE3F0E08081482F8A81282F30E081E092
:1026600090E0022E02C0880F991F0A94E2F780952D
:1026700084238C933EC0A7E3B0E0E7E3F0E08081E1
:10268000482F8A81282F30E081E090E0022E02C09E
:10269000880F991F0A94E2F7809584238C9329C0B0
:1026A000A4E3B0E0E4E3F0E08081482F8A81282FA2
:1026B00030E081E090E0022E02C0880F991F0A945A
:1026C000E2F7809584238C9314C0A1E3B0E0E1E3AA
:1026D000F0E08081482F8A81282F30E081E090E06F
:1026E000022E02C0880F991F0A94E2F78095842376
:1026F0008C9327960FB6F894DEBF0FBECDBFCF9157
:10270000DF910895DF93CF93CDB7DEB727970FB64C
:10271000F894DEBF0FBECDBF89836A834B838B8164
:10272000813009F070C08981282F30E03F832E83EB
:102730008E819F818230910551F12E813F8123301E
:10274000310534F48E819F818130910561F0D3C0D1
:102750002E813F812330310571F18E819F8184303C
:102760009105E9F1C8C0ABE3B0E0EBE3F0E08081B4
:10277000482F8A81282F30E081E090E0022E02C0AD
:10278000880F991F0A94E2F7842B8C93B4C0A8E3B6
:10279000B0E0E8E3F0E08081482F8A81282F30E024
:1027A00081E090E0022E02C0880F991F0A94E2F7A0
:1027B000842B8C93A0C0A5E3B0E0E5E3F0E080813A
:1027C000482F8A81282F30E081E090E0022E02C05D
:1027D000880F991F0A94E2F7842B8C938CC0A2E394
:1027E000B0E0E2E3F0E08081482F8A81282F30E0DA
:1027F00081E090E0022E02C0880F991F0A94E2F750
:10280000842B8C9378C08B81882309F074C08981D4
:10281000282F30E03D832C838C819D81823091056F
:1028200061F12C813D812330310534F48C819D810F
:102830008130910569F05FC02C813D8123303105E5
:1028400089F18C819D818430910509F440C053C089
:10285000ABE3B0E0EBE3F0E08081482F8A81282FE2
:1028600030E081E090E0022E02C0880F991F0A94A8
:10287000E2F7809584238C933EC0A8E3B0E0E8E3C0
:10288000F0E08081482F8A81282F30E081E090E0BD
:10289000022E02C0880F991F0A94E2F780958423C4
:1028A0008C9329C0A5E3B0E0E5E3F0E08081482FF8
:1028B0008A81282F30E081E090E0022E02C0880F4C
:1028C000991F0A94E2F7809584238C9314C0A2E3A5
:1028D000B0E0E2E3F0E08081482F8A81282F30E0E9
:1028E00081E090E0022E02C0880F991F0A94E2F75F
:1028F000809584238C9327960FB6F894DEBF0FBE85
:10290000CDBFCF91DF910895DF93CF9300D000D05A
:10291000CDB7DEB789836A838981282F30E03C8375
:102920002B838B819C8182309105D9F02B813C8156
:102930002330310534F48B819C818130910561F025
:102940001EC02B813C812330310581F08B819C811D
:102950008430910581F013C0EAE3F0E08A8180833E
:102960000EC0E7E3F0E08A81808309C0E4E3F0E091
:102970008A81808304C0E1E3F0E08A8180830F9044
:102980000F900F900F90CF91DF910895DF93CF9329
:1029900000D000D0CDB7DEB789836A838981282F24
:1029A00030E03C832B838B819C8182309105D9F070
:1029B0002B813C812330310534F48B819C81813023
:1029C000910561F01EC02B813C812330310581F0DF
:1029D0008B819C818430910581F013C0EBE3F0E0A2
:1029E0008A8180830EC0E8E3F0E08A81808309C099
:1029F000E5E3F0E08A81808304C0E2E3F0E08A81CD
:102A000080830F900F900F900F90CF91DF910895DA
:102A1000DF93CF9300D000D0CDB7DEB789836A8330
:102A20008981282F30E03C832B838B819C818230ED
:102A3000910551F12B813C812330310534F48B8198
:102A40009C818130910561F05AC02B813C812330FB
:102A5000310571F18B819C8184309105E9F14FC082
:102A6000ABE3B0E0EBE3F0E08081482F8A81282FD0
:102A700030E081E090E0022E02C0880F991F0A9496
:102A8000E2F784278C933BC0A8E3B0E0E8E3F0E0F2
:102A90008081482F8A81282F30E081E090E0022E4B
:102AA00002C0880F991F0A94E2F784278C9327C0ED
:102AB000A5E3B0E0E5E3F0E08081482F8A81282F8C
:102AC00030E081E090E0022E02C0880F991F0A9446
:102AD000E2F784278C9313C0A2E3B0E0E2E3F0E0D6
:102AE0008081482F8A81282F30E081E090E0022EFB
:102AF00002C0880F991F0A94E2F784278C930F90E5
:102B00000F900F900F90CF91DF910895DF93CF93A7
:102B100000D000D00F92CDB7DEB78A836B8385E0FB
:102B200089838A81282F30E03D832C834C815D810D
:102B30004230510541F18C819D818330910534F4FF
:102B40002C813D812130310561F052C04C815D8185
:102B50004330510551F18C819D8184309105B9F14B
:102B600047C0E9E3F0E08081282F30E08B81882F97
:102B700090E0A90102C0559547958A95E2F7CA01F0
:102B80008170898335C0E6E3F0E08081282F30E052
:102B90008B81882F90E0A90102C0559547958A95B1
:102BA000E2F7CA018170898323C0E3E3F0E080810A
:102BB000282F30E08B81882F90E0A90102C0559525
:102BC00047958A95E2F7CA018170898311C0E0E3D5
:102BD000F0E08081282F30E08B81882F90E0A901E0
:102BE00002C0559547958A95E2F7CA01817089839D
:102BF00089810F900F900F900F900F90CF91DF91E0
:102C00000895DF93CF9300D0CDB7DEB79A83898341
:102C1000E981FA818081E981FA819181692F41E01E
:102C20000E948012E981FA818081E981FA81928192
:102C3000692F41E00E948012E981FA818081E98157
:102C4000FA819381692F41E00E948012E981FA8123
:102C50008081E981FA819481692F41E00E9480128C
:102C60000F900F90CF91DF910895DF93CF9300D015
:102C7000CDB7DEB79A838983E981FA818081E981C2
:102C8000FA819181692F40E00E948213E981FA81E3
:102C90008081E981FA819281692F40E00E9482134C
:102CA000E981FA818081E981FA819381692F40E08D
:102CB0000E948213E981FA818081E981FA819481FD
:102CC000692F40E00E9482130F900F90CF91DF9107
:102CD0000895DF93CF9300D0CDB7DEB79A83898371
:102CE000E981FA818081E981FA819181692F40E04F
:102CF0000E948213E981FA818081E981FA819281BF
:102D0000692F41E00E948213E981FA818081E98183
:102D1000FA819381692F41E00E948213E981FA814F
:102D20008081E981FA819481692F40E00E948213B9
:102D30000F900F90CF91DF910895DF93CF9300D044
:102D4000CDB7DEB79A838983E981FA818081E981F1
:102D5000FA819181692F41E00E948213E981FA8111
:102D60008081E981FA819281692F40E00E9482137B
:102D7000E981FA818081E981FA819381692F40E0BC
:102D80000E948213E981FA818081E981FA8194812C
:102D9000692F41E00E9482130F900F90CF91DF9135
:102DA0000895DF93CF9300D0CDB7DEB71A8208C065
:102DB00083E06A8141E00E9480128A818F5F8A836A
:102DC0008A818430A8F384E0898308C083E0698124
:102DD00040E00E94801289818F5F898389818830D9
:102DE000A8F383E06FEF0E94C6140F900F90CF916D
:102DF000DF910895DF93CF93CDB7DEB761970FB61C
:102E0000F894DEBF0FBECDBF198A188AB6C083E022
:102E1000688940E00E94821384E08F87A2C083E02B
:102E20006F850E948615882309F098C080E090E0A5
:102E3000A0EFB1E48B879C87AD87BE876B857C85CF
:102E40008D859E8520E030E04AEF54E40E94FC0E20
:102E5000DC01CB018F839887A987BA876F8178853A
:102E600089859A8520E030E040E85FE30E945610B3
:102E700088232CF481E090E09E838D833FC06F8196
:102E8000788589859A8520E03FEF4FE757E40E94D7
:102E9000F60F18164CF56B857C858D859E8520E098
:102EA00030E040E251E40E94FC0EDC01CB01BC01A9
:102EB000CD010E944100DC01CB019E838D830FC0B8
:102EC00088EC90E09C838B838B819C810197F1F748
:102ED0009C838B838D819E8101979E838D838D81C1
:102EE0009E81009769F714C06F81788589859A85DE
:102EF0000E944100DC01CB019E838D838D819E81E8
:102F00009A83898389819A810197F1F79A838983CA
:102F100083E06F850E948615882301F583E06F8525
:102F20000E9486158823D1F38889482F50E08F8529
:102F3000882F90E09C0124503040CA01880F991FCF
:102F4000880F991F820F931FFC01EE58FD4F80815F
:102F5000898B83E0688941E00E9482138F858F5FAF
:102F60008F878F85883008F45ACF83E0688941E0E5
:102F70000E94821388898F5F888B8889843008F447
:102F800046CF898961960FB6F894DEBF0FBECDBFDC
:102F9000CF91DF910895DF93CF93CDB7DEB76C97D4
:102FA0000FB6F894DEBF0FBECDBF81E06FEF0E9479
:102FB000841482E060E041E00E94801282E061E0DF
:102FC00041E00E94801282E062E041E00E948012B3
:102FD00080E090E0A8E4B2E4898F9A8FAB8FBC8F39
:102FE000698D7A8D8B8D9C8D20E030E04AEF54E422
:102FF0000E94FC0EDC01CB018D8B9E8BAF8BB88FBA
:103000006D897E898F89988D20E030E040E85FE30C
:103010000E94561088232CF481E090E09C8B8B8BCF
:103020003FC06D897E898F89988D20E03FEF4FE703
:1030300057E40E94F60F18164CF5698D7A8D8B8D2A
:103040009C8D20E030E040E251E40E94FC0EDC0167
:10305000CB01BC01CD010E944100DC01CB019C8B66
:103060008B8B0FC088EC90E09A8B898B89899A8929
:103070000197F1F79A8B898B8B899C8901979C8B9F
:103080008B8B8B899C89009769F714C06D897E8929
:103090008F89988D0E944100DC01CB019C8B8B8B2A
:1030A0008B899C89988B8F878F8598890197F1F7F9
:1030B000988B8F8788E30E94E1188CE00E94E118CA
:1030C00081E00E94E11880E090E0A0E8BFE38B87F8
:1030D0009C87AD87BE876B857C858D859E8520E02E
:1030E00030E04AEF54E40E94FC0EDC01CB018F83F8
:1030F0009887A987BA876F81788589859A8520E026
:1031000030E040E85FE30E94561088232CF481E011
:1031100090E09E838D833FC06F81788589859A85F5
:1031200020E03FEF4FE757E40E94F60F18164CF5EA
:103130006B857C858D859E8520E030E040E251E402
:103140000E94FC0EDC01CB01BC01CD010E944100BC
:10315000DC01CB019E838D830FC088EC90E09C83C3
:103160008B838B819C810197F1F79C838B838D816D
:103170009E8101979E838D838D819E81009769F743
:1031800014C06F81788589859A850E944100DC0191
:10319000CB019E838D838D819E819A8389838981D2
:1031A0009A810197F1F79A83898386E00E94E1185A
:1031B0006C960FB6F894DEBF0FBECDBFCF91DF91F6
:1031C0000895DF93CF93CDB7DEB76D970FB6F89420
:1031D000DEBF0FBECDBF8D8F82E060E040E00E9479
:1031E000821382E061E040E00E94821381E06D8DF5
:1031F0000E94C61482E062E041E00E94821380E0F7
:1032000090E0A0E8BFE3898F9A8FAB8FBC8F698D68
:103210007A8D8B8D9C8D20E030E04AEF54E40E9443
:10322000FC0EDC01CB018D8B9E8BAF8BB88F6D8933
:103230007E898F89988D20E030E040E85FE30E942E
:10324000561088232CF481E090E09C8B8B8B3FC040
:103250006D897E898F89988D20E03FEF4FE757E495
:103260000E94F60F18164CF5698D7A8D8B8D9C8D0A
:1032700020E030E040E251E40E94FC0EDC01CB0192
:10328000BC01CD010E944100DC01CB019C8B8B8BEA
:103290000FC088EC90E09A8B898B89899A89019775
:1032A000F1F79A8B898B8B899C8901979C8B8B8BEF
:1032B0008B899C89009769F714C06D897E898F89F5
:1032C000988D0E944100DC01CB019C8B8B8B8B89FC
:1032D0009C89988B8F878F8598890197F1F7988BB8
:1032E0008F8782E062E040E00E94821380E090E0FD
:1032F000A0E8BFE38B879C87AD87BE876B857C8505
:103300008D859E8520E030E04AEF54E40E94FC0E5B
:10331000DC01CB018F839887A987BA876F81788575
:1033200089859A8520E030E040E85FE30E945610EE
:1033300088232CF481E090E09E838D833FC06F81D1
:10334000788589859A8520E03FEF4FE757E40E9412
:10335000F60F18164CF56B857C858D859E8520E0D3
:1033600030E040E251E40E94FC0EDC01CB01BC01E4
:10337000CD010E944100DC01CB019E838D830FC0F3
:1033800088EC90E09C838B838B819C810197F1F783
:103390009C838B838D819E8101979E838D838D81FC
:1033A0009E81009769F714C06F81788589859A8519
:1033B0000E944100DC01CB019E838D838D819E8123
:1033C0009A83898389819A810197F1F79A83898306
:1033D0006D960FB6F894DEBF0FBECDBFCF91DF91D3
:1033E0000895DF93CF93CDB7DEB76D970FB6F894FE
:1033F000DEBF0FBECDBF8D8F82E060E041E00E9456
:10340000821382E061E040E00E94821381E06D8DD2
:103410000E94C61482E062E041E00E94821380E0D4
:1034200090E0A0E8BFE3898F9A8FAB8FBC8F698D46
:103430007A8D8B8D9C8D20E030E04AEF54E40E9421
:10344000FC0EDC01CB018D8B9E8BAF8BB88F6D8911
:103450007E898F89988D20E030E040E85FE30E940C
:10346000561088232CF481E090E09C8B8B8B3FC01E
:103470006D897E898F89988D20E03FEF4FE757E473
:103480000E94F60F18164CF5698D7A8D8B8D9C8DE8
:1034900020E030E040E251E40E94FC0EDC01CB0170
:1034A000BC01CD010E944100DC01CB019C8B8B8BC8
:1034B0000FC088EC90E09A8B898B89899A89019753
:1034C000F1F79A8B898B8B899C8901979C8B8B8BCD
:1034D0008B899C89009769F714C06D897E898F89D3
:1034E000988D0E944100DC01CB019C8B8B8B8B89DA
:1034F0009C89988B8F878F8598890197F1F7988B96
:103500008F8782E062E040E00E94821380E090E0DA
:10351000A0E8BFE38B879C87AD87BE876B857C85E2
:103520008D859E8520E030E04AEF54E40E94FC0E39
:10353000DC01CB018F839887A987BA876F81788553
:1035400089859A8520E030E040E85FE30E945610CC
:1035500088232CF481E090E09E838D833FC06F81AF
:10356000788589859A8520E03FEF4FE757E40E94F0
:10357000F60F18164CF56B857C858D859E8520E0B1
:1035800030E040E251E40E94FC0EDC01CB01BC01C2
:10359000CD010E944100DC01CB019E838D830FC0D1
:1035A00088EC90E09C838B838B819C810197F1F761
:1035B0009C838B838D819E8101979E838D838D81DA
:1035C0009E81009769F714C06F81788589859A85F7
:1035D0000E944100DC01CB019E838D838D819E8101
:1035E0009A83898389819A810197F1F79A838983E4
:1035F0006D960FB6F894DEBF0FBECDBFCF91DF91B1
:103600000895DF93CF930F92CDB7DEB78983898179
:103610000E94F1190F90CF91DF910895DF93CF931E
:1036200000D0CDB7DEB79A8389830AC0E981FA81D9
:1036300080810E94F11989819A8101969A838983F8
:10364000E981FA818081882389F70F900F90CF91CB
:10365000DF910895DF93CF9300D000D0CDB7DEB7D0
:1036600089836A838A8181508A8389818150898391
:103670008981282F30E03C832B838B819C810097AC
:1036800031F02B813C812130310531F009C08A8134
:1036900080580E94E11804C08A8180540E94E11879
:1036A0000F900F900F900F90CF91DF910895DF93BF
:1036B000CF93CDB7DEB781E00E94E118CF91DF91C3
:1036C0000895DF93CF930F92CDB7DEB789838981B9
:1036D000805D0F90CF91DF910895EF92FF920F934D
:1036E0001F93DF93CF93CDB7DEB728970FB6F8942B
:1036F000DEBF0FBECDBF6D837E838F83988781E051
:1037000090E0A0E0B0E089839A83AB83BC8336C0AD
:1037100089819A81AB81BC812AE030E040E050E0B1
:10372000BC01CD010E94F43A7B018C018D819E8108
:10373000AF81B8852AE030E040E050E0BC01CD0127
:103740000E941F3BDC01CB018E0D9F1DA01FB11FEE
:1037500089839A83AB83BC838D819E81AF81B88539
:103760002AE030E040E050E0BC01CD010E941F3B68
:10377000DA01C9018D839E83AF83B8878D819E81D5
:10378000AF81B8850097A105B10511F689819A81AD
:10379000AB81BC81BC01CD0128960FB6F894DEBF89
:1037A0000FBECDBFCF91DF911F910F91FF90EF9092
:1037B0000895AF92BF92CF92DF92EF92FF920F9354
:1037C0001F93DF93CF93CDB7DEB760970FB6F89412
:1037D000DEBF0FBECDBF29873A874B875C876D87D9
:1037E0007E878F87988B81E089831A821B821C8257
:1037F0001D821E821F82188689859A85AB85BC85AD
:10380000BC01CD010E946D1BDC01CB0189839A8331
:10381000AB83BC83BB0F880B982FDC018D838E8319
:103820008F8388875EC0A980BA80CB80DC80ED80E2
:10383000FE800F8118852A2D3B2D4C2D5D2D6E2D80
:103840007F2D802F912F0F2EFAE0AF2EF02DBB246D
:10385000CC24DD24EE24FF2400E010E00E94E206E8
:10386000A22EB32EC42ED52EE62EF72E082F192FFA
:103870002A2D3B2D4C2D5D2D6E2D7F2D802F912FD0
:10388000822F805D0E94F119A980BA80CB80DC80F4
:10389000ED80FE800F8118852A2D3B2D4C2D5D2D4E
:1038A0006E2D7F2D802F912F0F2EFAE0AF2EF02D51
:1038B000BB24CC24DD24EE24FF2400E010E00E9491
:1038C0006D00A22EB32EC42ED52EE62EF72E082F75
:1038D000192FA982BA82CB82DC82ED82FE820F830D
:1038E00018878981813009F09ECF8A81882309F069
:1038F0009ACF8B81882309F096CF8C81882309F099
:1039000092CF8D81882309F08ECF8E81882309F094
:103910008ACF8F81882309F086CF8885882309F094
:1039200082CF60960FB6F894DEBF0FBECDBFCF91A9
:10393000DF911F910F91FF90EF90DF90CF90BF909C
:10394000AF900895DF93CF9300D00F92CDB7DEB73D
:103950008A8387E089831DC08A81282F30E089818E
:10396000992787FD9095A90102C0559547958A959D
:10397000E2F7CA0181709070882319F051E35B83EC
:1039800002C080E38B838B810E94F1198981815071
:1039900089838981882304F70F900F900F90CF912E
:1039A000DF910895DF93CF9300D000D0CDB7DEB77D
:1039B0008A837C836B838A81882F90E0880F991F8C
:1039C000880F991F880F991F80640E94E11819823F
:1039D0000EC08981282F30E08B819C81FC01E20F91
:1039E000F31F80810E94F11989818F5F898389810A
:1039F000883078F380E80E94E1180F900F900F90C4
:103A00000F90CF91DF910895AF92BF92CF92DF9246
:103A1000EF92FF920F931F93DF93CF93CDB7DEB753
:103A2000A5970FB6F894DEBF0FBECDBF8E8BCE012B
:103A30000396988F8F8BE0E6F0E0FA8FE98FFAE03B
:103A4000FB8FE98DFA8D0080898D9A8D01969A8F72
:103A5000898FEF89F88D00828F89988D0196988FD4
:103A60008F8B9B8D91509B8FEB8DEE2351F7CE0169
:103A70000D969D8F8C8FEAE6F0E0FF8FEE8FF6E0DB
:103A8000F8A3EE8DFF8D00808E8D9F8D01969F8F08
:103A90008E8FEC8DFD8D00828C8D9D8D01969D8F7E
:103AA0008C8F98A1915098A3E8A1EE2351F7CE01F5
:103AB00043969AA389A3E0E7F0E0FCA3EBA3F3E02D
:103AC000FDA3EBA1FCA100808BA19CA101969CA36E
:103AD0008BA3E9A1FAA1008289A19AA101969AA3D8
:103AE00089A39DA191509DA3EDA1EE2351F71A82C8
:103AF00019828E8982958F708A838E898F708983CF
:103B0000CE0103960E940E1B8E89A82EBB24CC24C6
:103B1000DD24EE24FF2487012A2D3B2D4C2D5D2D25
:103B20006E2D7F2D802F912F0E94D91B82E061E0A6
:103B30000E942A1BCE010D960E940E1BCE014396B9
:103B40000E940E1B8A818A3048F482E068E00E945D
:103B50002A1B8A81805D0E94F11908C082E068E01A
:103B60000E942A1B8A81895C0E94F11989818A300E
:103B700048F482E069E00E942A1B8981805D0E94EE
:103B8000F11908C082E069E00E942A1B8981895CE2
:103B90000E94F119A5960FB6F894DEBF0FBECDBFF7
:103BA000CF91DF911F910F91FF90EF90DF90CF9019
:103BB000BF90AF900895DF93CF9300D00F92CDB711
:103BC000DEB789836A834B838A816B810E942A1BBB
:103BD00089810E94F1190F900F900F90CF91DF9182
:103BE0000895DF93CF9300D000D0CDB7DEB79A838E
:103BF00089836B834C838B816C810E942A1B898112
:103C00009A810E940E1B0F900F900F900F90CF91F2
:103C1000DF910895AF92BF92CF92DF92EF92FF9221
:103C20000F931F93DF93CF93CDB7DEB72A970FB6CD
:103C3000F894DEBF0FBECDBF29833A834B835C83EC
:103C40006D837E838F8398870987EA8689856A8555
:103C50000E942A1BA980BA80CB80DC80ED80FE8088
:103C60000F8118852A2D3B2D4C2D5D2D6E2D7F2D1E
:103C7000802F912F0E94D91B2A960FB6F894DEBF91
:103C80000FBECDBFCF91DF911F910F91FF90EF90AD
:103C9000DF90CF90BF90AF900895DF93CF9300D087
:103CA000CDB7DEB79A838983E981FA818181E98181
:103CB000FA819081692F40E00E948012E981FA81A7
:103CC0008181E981FA819081692F41E00E9482130C
:103CD0000F900F90CF91DF910895DF93CF9300D095
:103CE0000F92CDB7DEB79B838A83EA81FB81818106
:103CF000EA81FB819081692F0E94861589838981E1
:103D0000882339F480918A02813019F410928A0252
:103D10000EC08981813041F480918A02882321F488
:103D200081E080938A0203C081E080938A028091BF
:103D30008A020F900F900F90CF91DF910895DF933B
:103D4000CF93CDB7DEB781E06FEF0E94841482E09D
:103D50006FEF0E948414CF91DF910895DF93CF938A
:103D6000CDB7DEB7A0970FB6F894DEBF0FBECDBFBC
:103D700088A388A18A3008F090C088A18F8F88C05E
:103D80008F8D882F90E0880F991F880F991FFC0155
:103D9000E557FD4F80819181A281B381982F81E009
:103DA000692F0E94C61480E090E0AAEFB3E4898FE7
:103DB0009A8FAB8FBC8F698D7A8D8B8D9C8D20E017
:103DC00030E04AEF54E40E94FC0EDC01CB018D8B05
:103DD0009E8BAF8BB88F6D897E898F89988D20E0FF
:103DE00030E040E85FE30E94561088232CF481E025
:103DF00090E09C8B8B8B3FC06D897E898F89988DDD
:103E000020E03FEF4FE757E40E94F60F18164CF5FD
:103E1000698D7A8D8B8D9C8D20E030E040E251E4FD
:103E20000E94FC0EDC01CB01BC01CD010E944100CF
:103E3000DC01CB019C8B8B8B0FC088EC90E09A8BC4
:103E4000898B89899A890197F1F79A8B898B8B895C
:103E50009C8901979C8B8B8B8B899C89009769F738
:103E600014C06D897E898F89988D0E944100DC0184
:103E7000CB019C8B8B8B8B899C89988B8F878F85B3
:103E800098890197F1F7988B8F878F8D81508F8F4D
:103E90008F8D882309F074CFB3C088A1833608F0D2
:103EA000AFC088A18F8FA8C08F8D9AE0692F0E9424
:103EB000133B8E8F8F8D9AE0692F0E94133B892FC1
:103EC0008D8F8E8D882F90E0880F991F880F991FF6
:103ED000FC01E557FD4F80819181A281B381982F2C
:103EE00081E0692F0E94C6148D8D882F90E0880F85
:103EF000991F880F991FFC01E557FD4F8081918123
:103F0000A281B381982F82E0692F0E94C61480E0BD
:103F100090E0AAEFB3E48B879C87AD87BE876B8563
:103F20007C858D859E8520E030E04AEF54E40E9438
:103F3000FC0EDC01CB018F839887A987BA876F813C
:103F4000788589859A8520E030E040E85FE30E942B
:103F5000561088232CF481E090E09E838D833FC02F
:103F60006F81788589859A8520E03FEF4FE757E498
:103F70000E94F60F18164CF56B857C858D859E8505
:103F800020E030E040E251E40E94FC0EDC01CB0175
:103F9000BC01CD010E944100DC01CB019E838D83D9
:103FA0000FC088EC90E09C838B838B819C81019770
:103FB000F1F79C838B838D819E8101979E838D83F6
:103FC0008D819E81009769F714C06F8178858985FE
:103FD0009A850E944100DC01CB019E838D838D81F7
:103FE0009E819A83898389819A810197F1F79A83C7
:103FF00089838F8D81508F8F8F8D882309F054CFC7
:10400000A0960FB6F894DEBF0FBECDBFCF91DF9163
:104010000895DF93CF930F92CDB7DEB7898382E007
:10402000698141E00E9480120F90CF91DF91089545
:10403000DF93CF930F92CDB7DEB7898382E069819A
:104040000E9484140F90CF91DF910895DF93CF9356
:104050000F92CDB7DEB7898382E0698141E00E948B
:1040600082130F90CF91DF910895DF93CF930F923A
:10407000CDB7DEB7898382E069810E94C6140F90B4
:10408000CF91DF910895DF93CF930F92CDB7DEB735
:10409000898382E0698140E00E9482130F90CF9172
:1040A000DF910895DF93CF930F92CDB7DEB7898369
:1040B00082E069810E94C6140F90CF91DF9108952C
:1040C000DF93CF9300D000D00F92CDB7DEB782E060
:1040D000898384E08A8385E08B8386E08C8387E014
:1040E0008D8383E00E9409200E94CB170E94D11685
:1040F000CE0101960E9401160F900F900F900F9025
:104100000F90CF91DF9108950F931F93DF93CF937B
:10411000CDB7DEB7C458D0400FB6F894DEBF0FBE9F
:10412000CDBFCE018D599F4FED969FAF8EAFED97CE
:1041300083EB92E0EF969FAF8EAFEF9798E0C15878
:10414000DF4F9883CF57D040EF96AEADBFADEF971E
:104150000C90EF96EEADFFADEF973196EF96FFAF77
:10416000EEAFEF97ED96AEADBFADED970C92ED963D
:10417000EEADFFADED973196ED96FFAFEEAFED975B
:10418000C158DF4FF881CF57D040F150C158DF4FB1
:10419000F883CF57D040C158DF4F8881CF57D040E8
:1041A000882391F6CE0185599F4F28E0FC01DF015D
:1041B000822F1D928A95E9F79E012D593F4F81E08C
:1041C000B9010E94D21C9E0125593F4F80E0B901E0
:1041D0000E94D21CCE018D589F4FC058DF4F99834B
:1041E0008883C058D040A3E7B0E0CE57DF4FB983F3
:1041F000A883C258D040B8E0CC57DF4FB883C4582A
:10420000D040CE57DF4FE881F981C258D0400080BE
:10421000CE57DF4F88819981C258D0400196CE5742
:10422000DF4F99838883C258D040C058DF4FA881A0
:10423000B981C058D0400C92C058DF4FE881F98155
:10424000C058D0403196C058DF4FF983E883C0583A
:10425000D040CC57DF4FF881C458D040F150CC57F4
:10426000DF4FF883C458D040CC57DF4F8881C45803
:10427000D040882331F681E066E00E942A1BCE01FF
:104280008D589F4F0E940E1B81E062E041E00E942A
:10429000DB1DFE01E15AFF4F80E090E0AAEFB3E49E
:1042A00080839183A283B3838E01055A1F4FFE0141
:1042B000E15AFF4F608171818281938120E030E07B
:1042C0004AEF54E40E94FC0EDC01CB01F80180832C
:1042D0009183A283B383FE01E55AFF4F6081718110
:1042E0008281938120E030E040E85FE30E94561035
:1042F000882344F4FE01E75AFF4F81E090E0918368
:10430000808364C0FE01E55AFF4F60817181828124
:10431000938120E03FEF4FE757E40E94F60F181615
:104320000CF043C0FE01E15AFF4F60817181828130
:10433000938120E030E040E251E40E94FC0EDC0179
:10434000CB018E01075A1F4FBC01CD010E944100D5
:10435000DC01CB01F801918380831FC0FE01E95A83
:10436000FF4F88EC90E091838083FE01E95AFF4F74
:10437000808191810197F1F7FE01E95AFF4F918306
:104380008083DE01A75ABF4FFE01E75AFF4F8081AD
:104390009181019711969C938E93FE01E75AFF4FEE
:1043A000808191810097D1F627C08E01075A1F4F57
:1043B000FE01E55AFF4F60817181828193810E94E5
:1043C0004100DC01CB01F80191838083DE01AB5A0F
:1043D000BF4FFE01E75AFF4F808191818D939C93DF
:1043E000FE01EB5AFF4F808191810197F1F7FE01A9
:1043F000EB5AFF4F9183808380E062E041E00E94AE
:10440000DB1DFE01EF5AFF4F80E090E0AAEFB3E41E
:1044100080839183A283B3838E01035B1F4FFE01D0
:10442000EF5AFF4F608171818281938120E030E0FB
:104430004AEF54E40E94FC0EDC01CB01F8018083BA
:104440009183A283B383FE01E35BFF4F608171819F
:104450008281938120E030E040E85FE30E945610C3
:10446000882344F4FE01E55BFF4F81E090E09183F7
:10447000808364C0FE01E35BFF4F608171818281B4
:10448000938120E03FEF4FE757E40E94F60F1816A4
:104490000CF043C0FE01EF5AFF4F608171818281B1
:1044A000938120E030E040E251E40E94FC0EDC0108
:1044B000CB018E01055B1F4FBC01CD010E94410065
:1044C000DC01CB01F801918380831FC0FE01E75B13
:1044D000FF4F88EC90E091838083FE01E75BFF4F04
:1044E000808191810197F1F7FE01E75BFF4F918396
:1044F0008083DE01A55BBF4FFE01E55BFF4F80813E
:104500009181019711969C938E93FE01E55BFF4F7D
:10451000808191810097D1F627C08E01055B1F4FE6
:10452000FE01E35BFF4F60817181828193810E9474
:104530004100DC01CB01F80191838083DE01A95B9E
:10454000BF4FFE01E55BFF4F808191818D939C936E
:10455000FE01E95BFF4F808191810197F1F7FE0138
:10456000E95BFF4F9183808381E062E043E00E943A
:10457000DB1DFE01ED5BFF4F80E090E0AAEFB3E4AE
:1045800080839183A283B3838E01015C1F4FFE0160
:10459000ED5BFF4F608171818281938120E030E08B
:1045A0004AEF54E40E94FC0EDC01CB01F801808349
:1045B0009183A283B383FE01FF9660817181828122
:1045C000938120E030E040E85FE30E9456108823AA
:1045D0002CF481E090E09EAF8DAF46C0FE01FF96C7
:1045E000608171818281938120E03FEF4FE757E442
:1045F0000E94F60F181664F5FE01ED5BFF4F608117
:1046000071818281938120E030E040E251E40E9498
:10461000FC0EDC01CB01BC01CD010E944100DC019C
:10462000CB019EAF8DAF0FC088EC90E09CAF8BAFFD
:104630008BAD9CAD0197F1F79CAF8BAF8DAD9EAD6F
:1046400001979EAF8DAF8DAD9EAD009769F716C0F7
:10465000FE01FF9660817181828193810E944100F9
:10466000DC01CB019EAF8DAF8DAD9EAD9AAF89AF12
:1046700089AD9AAD0197F1F79AAF89AF80E062E01A
:1046800043E00E94DB1D81E062E048E00E94DB1D08
:1046900080E090E0AAEFB3E48DAB9EABAFABB8AFD8
:1046A0006DA97EA98FA998AD20E030E04AEF54E4CF
:1046B0000E94FC0EDC01CB0189AB9AABABABBCAB6F
:1046C00069A97AA98BA99CA920E030E040E85FE3C2
:1046D0000E94561088232CF481E090E098AB8FA7BD
:1046E0003FC069A97AA98BA99CA920E03FEF4FE7B9
:1046F00057E40E94F60F18164CF56DA97EA98FA9F4
:1047000098AD20E030E040E251E40E94FC0EDC0174
:10471000CB01BC01CD010E944100DC01CB0198AB73
:104720008FA70FC088EC90E09EA78DA78DA59EA5B2
:104730000197F1F79EA78DA78FA598A9019798AB30
:104740008FA78FA598A9009769F714C069A97AA9BE
:104750008BA99CA90E944100DC01CB0198AB8FA7DB
:104760008FA598A99CA78BA78BA59CA50197F1F76E
:104770009CA78BA780E062E048E00E94DB1D81E0FF
:1047800062E04BE00E94DB1D80E090E0AAEFB3E422
:104790008FA398A7A9A7BAA76FA178A589A59AA55D
:1047A00020E030E04AEF54E40E94FC0EDC01CB0133
:1047B0008BA39CA3ADA3BEA36BA17CA18DA19EA145
:1047C00020E030E040E85FE30E94561088232CF49C
:1047D00081E090E09AA389A33FC06BA17CA18DA149
:1047E0009EA120E03FEF4FE757E40E94F60F181616
:1047F0004CF56FA178A589A59AA520E030E040E2AC
:1048000051E40E94FC0EDC01CB01BC01CD010E94F1
:104810004100DC01CB019AA389A30FC088EC90E092
:1048200098A38F8F8F8D98A10197F1F798A38F8F01
:1048300089A19AA101979AA389A389A19AA1009716
:1048400069F714C06BA17CA18DA19EA10E944100BB
:10485000DC01CB019AA389A389A19AA19E8F8D8F98
:104860008D8D9E8D0197F1F79E8F8D8F80E062E098
:104870004BE00E94DB1D81E062E040E10E94DB1D15
:1048800080E090E0AAEFB3E4898F9A8FAB8FBC8F62
:10489000698D7A8D8B8D9C8D20E030E04AEF54E459
:1048A0000E94FC0EDC01CB018D8B9E8BAF8BB88FF1
:1048B0006D897E898F89988D20E030E040E85FE344
:1048C0000E94561088232CF481E090E09C8B8B8B07
:1048D0003FC06D897E898F89988D20E03FEF4FE73B
:1048E00057E40E94F60F18164CF5698D7A8D8B8D62
:1048F0009C8D20E030E040E251E40E94FC0EDC019F
:10490000CB01BC01CD010E944100DC01CB019C8B9D
:104910008B8B0FC088EC90E09A8B898B89899A8960
:104920000197F1F79A8B898B8B899C8901979C8BD6
:104930008B8B8B899C89009769F714C06D897E8960
:104940008F89988D0E944100DC01CB019C8B8B8B61
:104950008B899C89988B8F878F8598890197F1F730
:10496000988B8F8780E062E040E10E94DB1D80E051
:1049700090E0AAEFB3E48B879C87AD87BE876B85F9
:104980007C858D859E8520E030E04AEF54E40E94CE
:10499000FC0EDC01CB018F839887A987BA876F81D2
:1049A000788589859A8520E030E040E85FE30E94C1
:1049B000561088232CF481E090E09E838D833FC0C5
:1049C0006F81788589859A8520E03FEF4FE757E42E
:1049D0000E94F60F18164CF56B857C858D859E859B
:1049E00020E030E040E251E40E94FC0EDC01CB010B
:1049F000BC01CD010E944100DC01CB019E838D836F
:104A00000FC088EC90E09C838B838B819C81019705
:104A1000F1F79C838B838D819E8101979E838D838B
:104A20008D819E81009769F714C06F817885898593
:104A30009A850E944100DC01CB019E838D838D818C
:104A40009E819A83898389819A810197F1F79A835C
:104A50008983CC57DF4F0FB6F894DEBF0FBECDBFB2
:104A6000CF91DF911F910F910895EF920F93DF93F4
:104A7000CF93CDB7DEB769970FB6F894DEBF0FBE00
:104A8000CDBFCE010196998B888BEBE7F0E0FB8BD5
:104A9000EA8BF8E0FC8BEA89FB8900808A899B8994
:104AA00001969B8B8A8BE889F9890082888999898C
:104AB0000196998B888B9C8991509C8BEC89EE2375
:104AC00051F7CE0109969E8B8D8BE3E8F0E0F88FCD
:104AD000EF8BF7E0F98FEF89F88D00808F89988D43
:104AE0000196988F8F8BED89FE8900828D899E8932
:104AF00001969E8B8D8B998D9150998FE98DEE2328
:104B000051F721E030E040E050E060E070E080E00C
:104B100090E001E0EE24E3940E940A1E8DE261E041
:104B200042E00E94DB1DCE01019661E043E00E945D
:104B3000F11D22E030E040E050E060E070E080E015
:104B400090E002E0EE24E3940E940A1E8DE262E00F
:104B500042E00E94DB1DCE01099662E043E00E9424
:104B6000F11D69960FB6F894DEBF0FBECDBFCF9191
:104B7000DF910F91EF900895EF920F93DF93CF9312
:104B8000CDB7DEB762970FB6F894DEBF0FBECDBFCC
:104B900080918A0090918B00A0918C00B0918D0043
:104BA00089839A83AB83BC83CE0105969F878E87CA
:104BB000EEE8F0E0F98BE88BF9E0FA8BE889F98907
:104BC0000080888999890196998B888BEE85FF856D
:104BD00000828E859F8501969F878E879A89915046
:104BE0009A8BEA89EE2351F721E030E040E050E073
:104BF00060E070E080E090E001E0EE24E3940E9449
:104C00000A1E8DE261E042E00E94DB1DCE010196AA
:104C100061E043E00E94F11D22E030E040E050E01E
:104C200060E070E080E090E002E0EE24E3940E9417
:104C30000A1E8DE261E042E00E94DB1DCE01059676
:104C400062E043E00E94F11D62960FB6F894DEBF69
:104C50000FBECDBFCF91DF910F91EF900895EF92EE
:104C60000F93DF93CF93CDB7DEB769970FB6F89464
:104C7000DEBF0FBECDBFCE010196998B888BE7E9D1
:104C8000F0E0FB8BEA8BF7E0FC8BEA89FB89008084
:104C90008A899B8901969B8B8A8BE889F989008296
:104CA000888999890196998B888B9C8991509C8BD6
:104CB000EC89EE2351F7CE0108969E8B8D8BEEE9A1
:104CC000F0E0F88FEF8BF8E0F98FEF89F88D008036
:104CD0008F89988D0196988F8F8BED89FE89008240
:104CE0008D899E8901969E8B8D8B998D9150998F80
:104CF000E98DEE2351F721E030E040E050E060E044
:104D000070E080E090E001E0EE24E3940E940A1E4F
:104D10008DE261E042E00E94DB1DCE01019661E080
:104D200043E00E94F11D22E030E040E050E060E00E
:104D300070E080E090E002E0EE24E3940E940A1E1E
:104D40008DE261E042E00E94DB1DCE01089662E048
:104D500043E00E94F11D69960FB6F894DEBF0FBEC6
:104D6000CDBFCF91DF910F91EF900895EF920F9308
:104D7000DF93CF93CDB7DEB7A3970FB6F894DEBF1E
:104D80000FBECDBFCE0101969B8F8A8FE6EAF0E081
:104D9000FD8FEC8FFCE0FE8FEC8DFD8D00808C8D07
:104DA0009D8D01969D8F8C8FEA8DFB8D00828A8D63
:104DB0009B8D01969B8F8A8F9E8D91509E8FEE8D3D
:104DC000EE2351F7CE010D9698A38F8FE2EBF0E022
:104DD000FAA3E9A3FDE0FBA3E9A1FAA1008089A160
:104DE0009AA101969AA389A3EF8DF8A100828F8DD5
:104DF00098A1019698A38F8F9BA191509BA3EBA1A3
:104E0000EE2351F721E030E040E050E060E070E058
:104E100080E090E001E0EE24E3940E940A1E8DE21F
:104E200061E042E00E94DB1DCE01019661E043E0BB
:104E30000E94F11D22E030E040E050E060E070E0D0
:104E400080E090E002E0EE24E3940E940A1E8DE2EE
:104E500061E042E00E94DB1DCE010D9662E043E07E
:104E60000E94F11DA3960FB6F894DEBF0FBECDBF12
:104E7000CF91DF910F91EF900895EF920F93DF9311
:104E8000CF93CDB7DEB7A9970FB6F894DEBF0FBEAC
:104E9000CDBFCE01019699A388A3EFEBF0E0FBA371
:104EA000EAA3FFE0FCA3EAA1FBA100808AA19BA1E9
:104EB00001969BA38AA3E8A1F9A1008288A199A1E8
:104EC000019699A388A39CA191509CA3ECA1EE23E9
:104ED00051F7CE0140969EA38DA3EEECF0E0F8A72B
:104EE000EFA3F0E1F9A7EFA1F8A500808FA198A5A5
:104EF000019698A78FA3EDA1FEA100828DA19EA18E
:104F000001969EA38DA399A5915099A7E9A5EE239B
:104F100051F721E030E040E050E060E070E080E0F8
:104F200090E001E0EE24E3940E940A1E8DE261E02D
:104F300042E00E94DB1DCE01019661E043E00E9449
:104F4000F11D22E030E040E050E060E070E080E001
:104F500090E002E0EE24E3940E940A1E8DE261E0FC
:104F600042E00E94DB1DCE01409662E043E00E94D9
:104F7000F11DA9960FB6F894DEBF0FBECDBFCF913D
:104F8000DF910F91EF900895DF93CF9300D000D081
:104F90000F92CDB7DEB782E0898384E08A8385E013
:104FA0008B8386E08C8387E08D83CE0101960E94FF
:104FB00069160F900F900F900F900F90CF91DF9187
:104FC0000895DF93CF9300D000D00F92CDB7DEB716
:104FD00082E0898384E08A8385E08B8386E08C830A
:104FE00087E08D83CE0101960E949D160F900F9051
:104FF0000F900F900F90CF91DF910895DF93CF9393
:1050000000D000D00F92CDB7DEB782E0898384E074
:105010008A8385E08B8386E08C8387E08D83CE0155
:1050200001960E9435160F900F900F900F900F90E1
:10503000CF91DF910895DF93CF93CDB7DEB7C955F8
:10504000D0400FB6F894DEBF0FBECDBFCE0106969E
:1050500023969FAF8EAF2397E7E9F0E02596FFAF49
:10506000EEAF2597F7E02696FFAF26972596EEAD93
:10507000FFAD2597008025968EAD9FAD25970196B3
:1050800025969FAF8EAF25972396EEADFFAD239764
:10509000008223968EAD9FAD2397019623969FAFF6
:1050A0008EAF239726969FAD2697915026969FAF59
:1050B00026972696EFAD2697EE23C1F6CE010D96E4
:1050C00028969FAF8EAF2897EEE9F0E02A96FFAFC3
:1050D000EEAF2A97F8E02B96FFAF2B972A96EEAD0E
:1050E000FFAD2A9700802A968EAD9FAD2A97019634
:1050F0002A969FAF8EAF2A972896EEADFFAD2897E0
:10510000008228968EAD9FAD2897019628969FAF76
:105110008EAF28972B969FAD2B9791502B969FAFD4
:105120002B972B96EFAD2B97EE23C1F6CE0145962C
:105130002D969FAF8EAF2D97E2EBF0E02F96FFAF4D
:10514000EEAF2F97FDE06096FFAF60972F96EEAD24
:10515000FFAD2F9700802F968EAD9FAD2F970196B4
:105160002F969FAF8EAF2F972D96EEADFFAD2D975B
:1051700000822D968EAD9FAD2D9701962D969FAFF7
:105180008EAF2D9760969FAD6097915060969FAFC0
:1051900060976096EFAD6097EE23C1F6CE018296E0
:1051A00062969FAF8EAF6297EFEBF0E06496FFAF31
:1051B000EEAF6497FFE06596FFAF65976496EEAD3E
:1051C000FFAD6497008064968EAD9FAD64970196A5
:1051D00064969FAF8EAF64976296EEADFFAD629717
:1051E000008262968EAD9FAD6297019662969FAFE8
:1051F0008EAF629765969FAD6597915065969FAF0C
:1052000065976596EFAD6597EE23C1F6CE01C19621
:1052100067969FAF8EAF6797EEECF0E06996FFAFB1
:10522000EEAF6997F0E16A96FFAF6A976996EEADC7
:10523000FFAD6997008069968EAD9FAD6997019625
:1052400069969FAF8EAF69976796EEADFFAD679792
:10525000008267968EAD9FAD6797019667969FAF68
:105260008EAF67976A969FAD6A9791506A969FAF87
:105270006A976A96EFAD6A97EE23C1F682E063E023
:105280000E9486158D838D81813039F4CE0106967A
:1052900061E041E00E94F11D06C0CE010D9661E083
:1052A00041E00E94F11D82E064E00E9486158C833B
:1052B00082E065E00E9486158B8382E066E00E94B2
:1052C00086158A8382E067E00E94861589838C8137
:1052D000882381F48B81813069F48A81813051F493
:1052E0008981882339F4CE01829662E041E00E94F0
:1052F000F11D19C08C81813081F48B81882369F480
:105300008A81882351F48981813039F4CE01C19694
:1053100062E041E00E94F11D06C0CE01459662E0C8
:1053200041E00E94F11DC75ADF4F0FB6F894DEBF6F
:105330000FBECDBFCF91DF9108950F931F93DF93E1
:10534000CF93CDB7DEB7CA5CD1400FB6F894DEBFBD
:105350000FBECDBF0E946020CE0182509F4FCC5621
:10536000DE4F99838883C459D1402EED30E0CA5670
:10537000DE4F39832883C659D1403DE0C856DE4F01
:105380003883C859D140CA56DE4FE881F981C659E1
:10539000D1400080CA56DE4F28813981C659D1409C
:1053A0002F5F3F4FCA56DE4F39832883C659D140FD
:1053B000CC56DE4FE881F981C459D1400082CC56E9
:1053C000DE4F28813981C459D1402F5F3F4FCC56E1
:1053D000DE4F39832883C459D140C856DE4F388107
:1053E000C859D1403150C856DE4F3883C859D140D2
:1053F000C856DE4F8881C859D140882321F6CE0196
:10540000855F9E4FC756DE4F99838883C959D14027
:10541000EBEEF0E0C556DE4FF983E883CB59D1407F
:10542000F1E1C356DE4FF883CD59D140C556DE4F6A
:10543000E881F981CB59D1400080C556DE4F2881E3
:105440003981CB59D1402F5F3F4FC556DE4F39834D
:105450002883CB59D140C756DE4FE881F981C9591D
:10546000D1400082C756DE4F28813981C959D140C9
:105470002F5F3F4FC756DE4F39832883C959D1402C
:10548000C356DE4F3881CD59D1403150C356DE4F1F
:105490003883CD59D140C356DE4F8881CD59D14094
:1054A000882321F6CE01845E9E4FC256DE4F99833B
:1054B0008883CE59D140ECEFF0E0C056DE4FF9833F
:1054C000E883C05AD140FEE0CE55DE4FF883C25A81
:1054D000D140C056DE4FE881F981C05AD1400080EA
:1054E000C056DE4F28813981C05AD1402F5F3F4FCF
:1054F000C056DE4F39832883C05AD140C256DE4F92
:10550000E881F981CE59D1400082C256DE4F288110
:105510003981CE59D1402F5F3F4FC256DE4F39837C
:105520002883CE59D140CE55DE4F3881C25AD14062
:105530003150CE55DE4F3883C25AD140CE55DE4F62
:105540008881C25AD140882321F6CE01865D9E4FC4
:10555000CD55DE4F99838883C35AD140EAE0F1E00C
:10556000CB55DE4FF983E883C55AD140F1E1C955E7
:10557000DE4FF883C75AD140CB55DE4FE881F98121
:10558000C55AD1400080CB55DE4F28813981C55A9C
:10559000D1402F5F3F4FCB55DE4F39832883C55A0B
:1055A000D140CD55DE4FE881F981C35AD140008208
:1055B000CD55DE4F28813981C35AD1402F5F3F4FEF
:1055C000CD55DE4F39832883C35AD140C955DE4FAC
:1055D0003881C75AD1403150C955DE4F3883C75A38
:1055E000D140C955DE4F8881C75AD140882321F662
:1055F000CE01855C9E4FC855DE4F99838883C85A7B
:10560000D140EBE1F1E0C655DE4FF983E883CA5A99
:10561000D140FCE0C455DE4FF883CC5AD140C6558A
:10562000DE4FE881F981CA5AD1400080C655DE4F6D
:1056300028813981CA5AD1402F5F3F4FC655DE4F6E
:1056400039832883CA5AD140C855DE4FE881F98191
:10565000C85AD1400082C855DE4F28813981C85AC6
:10566000D1402F5F3F4FC855DE4F39832883C85A3A
:10567000D140C455DE4F3881CC5AD1403150C45549
:10568000DE4F3883CC5AD140C455DE4F8881CC5A86
:10569000D140882321F6CE01895B9E4FC355DE4F52
:1056A00099838883CD5AD140E7E2F1E0C155DE4FBE
:1056B000F983E883CF5AD140F8E0CF54DE4FF88326
:1056C000C15BD140C155DE4FE881F981CF5AD1404D
:1056D0000080C155DE4F28813981CF5AD1402F5FDC
:1056E0003F4FC155DE4F39832883CF5AD140C35530
:1056F000DE4FE881F981CD5AD1400082C355DE4F9B
:1057000028813981CD5AD1402F5F3F4FC355DE4F9D
:1057100039832883CD5AD140CF54DE4F3881C15BC5
:10572000D1403150CF54DE4F3883C15BD140CF548C
:10573000DE4F8881C15BD140882321F6CE01815B99
:105740009E4FCE54DE4F99838883C25BD140EFE2F7
:10575000F1E0CC54DE4FF983E883C45BD140F7E03D
:10576000CA54DE4FF883C65BD140CC54DE4FE8818B
:10577000F981C45BD1400080CC54DE4F288139814F
:10578000C45BD1402F5F3F4FCC54DE4F3983288319
:10579000C45BD140CE54DE4FE881F981C25BD14079
:1057A0000082CE54DE4F28813981C25BD1402F5F09
:1057B0003F4FCE54DE4F39832883C25BD140CA5459
:1057C000DE4F3881C65BD1403150CA54DE4F38833A
:1057D000C65BD140CA54DE4F8881C65BD140882366
:1057E00021F6CE018A5A9E4FC954DE4F9983888391
:1057F000C75BD140E6E3F1E0C754DE4FF983E883AD
:10580000C95BD140F8E0C554DE4FF883CB5BD14093
:10581000C754DE4FE881F981C95BD1400080C7548D
:10582000DE4F28813981C95BD1402F5F3F4FC7547C
:10583000DE4F39832883C95BD140C954DE4FE881EC
:10584000F981C75BD1400082C954DE4F288139817C
:10585000C75BD1402F5F3F4FC954DE4F3983288348
:10586000C75BD140C554DE4F3881CB5BD14031504E
:10587000C554DE4F3883CB5BD140C554DE4F8881A1
:10588000CB5BD140882321F6CE01825A9E4FC4546F
:10589000DE4F99838883CC5BD140EEE3F1E0C254C4
:1058A000DE4FF983E883CE5BD140FDE0C054DE4F8C
:1058B000F883C05CD140C254DE4FE881F981CE5BF1
:1058C000D1400080C254DE4F28813981CE5BD14067
:1058D0002F5F3F4FC254DE4F39832883CE5BD140C8
:1058E000C454DE4FE881F981CC5BD1400082C454BE
:1058F000DE4F28813981CC5BD1402F5F3F4FC454AC
:10590000DE4F39832883CC5BD140C054DE4F3881D1
:10591000C05CD1403150C054DE4F3883C05CD140B0
:10592000C054DE4F8881C05CD140882321F6CE016F
:1059300085599E4FCF53DE4F99838883C15CD140F8
:10594000EBE4F1E0CD53DE4FF983E883C35CD14053
:10595000FFE0CB53DE4FF883C55CD140CD53DE4F23
:10596000E881F981C35CD1400080CD53DE4F2881AE
:105970003981C35CD1402F5F3F4FCD53DE4F398318
:105980002883C35CD140CF53DE4FE881F981C15CED
:10599000D1400082CF53DE4F28813981C15CD14094
:1059A0002F5F3F4FCF53DE4F39832883C15CD140F7
:1059B000CB53DE4F3881C55CD1403150CB53DE4FE5
:1059C0003883C55CD140CB53DE4F8881C55CD14064
:1059D000882321F6CE0186589E4FCA53DE4F998305
:1059E0008883C65CD140EAE5F1E0C853DE4FF98315
:1059F000E883C85CD140F0E1C653DE4FF883CA5C4F
:105A0000D140C853DE4FE881F981C85CD1400080A5
:105A1000C853DE4F28813981C85CD1402F5F3F4F8A
:105A2000C853DE4F39832883C85CD140CA53DE4F48
:105A3000E881F981C65CD1400082CA53DE4F2881DB
:105A40003981C65CD1402F5F3F4FCA53DE4F398347
:105A50002883C65CD140C653DE4F3881CA5CD14032
:105A60003150C653DE4F3883CA5CD140C653DE4F37
:105A70008881CA5CD140882321F60E9484200E943C
:105A8000571B0E9435250E94FA16FE01E350FF4F76
:105A90008083FE01E350FF4F8081882391F3FE0154
:105AA000E350FF4F8081E82FF0E0CE56DE4FF983C0
:105AB000E883C259D140CE56DE4F28813981C25980
:105AC000D1402133310561F0CE56DE4F8881998176
:105AD000C259D1408233910511F40C945B3AD1CF75
