:100000000C942A000C94D7120C940A130C943D13F0
:100010000C9447000C9447000C9447000C94470044
:100020000C9447000C9447000C9447000C94470034
:100030000C9447000C9447000C9447000C94470024
:100040000C9447000C9447000C9447000C94470014
:100050000C94470011241FBECFE5D8E0DEBFCDBF12
:1000600011E0A0E6B0E0EEE7FAE402C005900D92E0
:10007000AC3BB107D9F711E0ACEBB1E001C01D9288
:10008000A23CB107E1F70E9487230C943D250C9414
:100090000000EF92FF920F931F937B018C0120E0F1
:1000A00030E040E05FE40E942E1088238CF0C8010D
:1000B000B70120E030E040E05FE40E94A60E0E941D
:1000C0008E109B01AC01205030404040504806C08B
:1000D000C801B7010E948E109B01AC01B901CA0191
:1000E0001F910F91FF90EF900895AEE5B0E0EBE720
:1000F000F0E00C940625A8E04E010894811C911CA8
:10010000F4016A2E11926A94E9F729833A834B83AA
:100110005C836D837E838F839887CE010996FC0173
:100120001192AA95E9F7A986BA86CB86DC86ED8678
:10013000FE860F87188B29843A844B845C84ED8477
:10014000FE840F85188969807A808B809C806DA6DB
:100150007EA68FA698AA6D807E808F809884E114F9
:10016000F1040105110509F0B3C36214730484049A
:10017000950408F03DC100E0201600E0300601E0E3
:10018000400600E0500688F41FEF211631044104B8
:10019000510439F030F048E0E42EF12C012D112DFE
:1001A00018C0EE24FF24870114C020E0221620E0AE
:1001B000320620E0420621E0520630F038E1E32E1C
:1001C000F12C012D112D05C020E1E22EF12C012D85
:1001D000112DD201C1010E2C04C0B695A79597959B
:1001E00087950A94D2F785589F4FDC012C9180E2C5
:1001F00090E0A0E0B0E08E199F09A00BB10B7C014C
:100200008D01E21AF10801091109E114F104010557
:100210001105A1F10E2C04C0220C331C441C551CEA
:100220000A94D2F7A40193010E2C04C0220F331FAD
:10023000441F551F0A94D2F780E290E08E199F095F
:100240006DA47EA48FA498A804C0969487947794F4
:1002500067948A95D2F7622A732A842A952AADA4D4
:10026000BEA4CFA4D8A804C0AA0CBB1CCC1CDD1C07
:10027000EA94D2F7ADA6BEA6CFA6D8AA6201EE2414
:10028000FF24CDAADEAAEFAAF8AE92018101207068
:10029000307009AF1AAF2BAF3CAFC401B301A70157
:1002A00096010E94E4247B018C01C401B3012DA9B5
:1002B0003EA94FA958AD0E94E424C901DA013C01CE
:1002C0004D01C401B30129AD3AAD4BAD5CAD0E9407
:1002D0009E249B01AC018701FF24EE24ADA4BEA4A3
:1002E000CFA4D8A8C601AA27BB2757016801A82A0E
:1002F000B92ACA2ADB2AA216B306C406D506E0F438
:1003000008946108710881089108A20CB31CC41CF0
:10031000D51CA214B304C404D50470F0A216B3060D
:10032000C406D50648F4089461087108810891084C
:10033000A20CB31CC41CD51CA21AB30AC40AD50A49
:10034000C601B5012DA93EA94FA958AD0E94E424CC
:100350007B018C01C601B5012DA93EA94FA958AD5D
:100360000E94E424C901DA015C016D01C601B501F6
:1003700029AD3AAD4BAD5CAD0E949E249B01AC0112
:100380008701FF24EE248DA59EA5AFA5B8A9A07076
:10039000B070E82AF92A0A2B1B2BE216F306040791
:1003A0001507C0F40894A108B108C108D108E20CEF
:1003B000F31C041D151DE214F3040405150550F08B
:1003C000E216F3060407150728F40894A108B108FB
:1003D000C108D108D3019927882786017501E82A29
:1003E000F92A0A2B1B2BE9AAFAAA0BAB1CABCFC428
:1003F000211431044104510471F461E070E080E0A3
:1004000090E020E030E040E050E00E94E424C901A8
:10041000DA011C012D0100E0201600E0300601E0A9
:10042000400600E0500688F41FEF21163104410415
:10043000510431F028F048E050E060E070E017C06F
:1004400040E050E060E070E012C020E0221620E0C2
:10045000320620E0420621E0520628F048E150E052
:1004600060E070E004C040E150E060E070E0D20184
:10047000C101042E04C0B695A795979587950A9457
:10048000D2F785589F4FDC012C91E0E2EE2EF12C43
:10049000012D112DD801C701841B950BA60BB70B9D
:1004A000821B9109A109B1090097A105B10561F469
:1004B00064015301A218B308C408D50831E0632EC3
:1004C000712C812C912C1EC16F968FAF6F97082EC7
:1004D00004C0220C331C441C551C0A94D2F7EE2D88
:1004E000E81B640153010E2E04C0D694C794B79440
:1004F000A7940A94D2F7A40193016F960FAC6F975B
:1005000004C0220F331F441F551F0A94D2F76DA455
:100510007EA48FA498A80E2E04C0969487947794F6
:1005200067940A94D2F784017301E22AF32A042B18
:10053000152BE9A6FAA60BA71CA73201882499243B
:10054000920181012070307021960CAF1DAF2EAF4B
:100550003FAF2197C601B501A40193010E94E42495
:100560007B018C01C601B501A40193010E94E42422
:10057000C901DA0125968CAF9DAFAEAFBFAF25970D
:10058000BC01CD0121962CAD3DAD4EAD5FAD2197A7
:100590000E949E249B01AC018701FF24EE24A9A4A4
:1005A000BAA4CBA4DCA4C601AA27BB275C016D01B9
:1005B000AE28BF28C02AD12AA216B306C406D50683
:1005C00060F525966CAD7DAD8EAD9FAD25976150E4
:1005D00070408040904025966CAF7DAF8EAF9FAF4E
:1005E0002597A20CB31CC41CD51CA214B304C404CC
:1005F000D50498F0A216B306C406D50670F461506F
:1006000070408040904025966CAF7DAF8EAF9FAF1D
:100610002597A20CB31CC41CD51CA21AB30AC40A89
:10062000D50AC601B501A40193010E94E4247B010F
:100630008C01C601B501A40193010E94E424C90103
:10064000DA013C014D01C401B30121962CAD3DAD51
:100650004EAD5FAD21970E949E249B01AC018701A6
:10066000FF24EE2489A59AA5ABA5BCA5A070B07007
:1006700057016801A82AB92ACA2ADB2AA216B3069A
:10068000C406D506E0F40894610871088108910851
:10069000A20CB31CC41CD51CA214B304C404D504FE
:1006A00070F0A216B306C406D50648F40894610893
:1006B000710881089108A20CB31CC41CD51C8DA51F
:1006C0009EA5AFA5B8A96F960FAC6F9704C0880F11
:1006D000991FAA1FBB1F0A94D2F78DA79EA7AFA789
:1006E000B8ABA21AB30AC40AD50A2596ECACFDAC85
:1006F0000EAD1FAD2597D70199278827682A792A3B
:100700008A2A9B2A82012227332729960CAF1DAF04
:100710002EAF3FAF2997A2019101407050702D96E6
:100720002CAF3DAF4EAF5FAF2D97C601B5012996F7
:100730002CAD3DAD4EAD5FAD29970E94E4247B0109
:100740008C01C601B50129962CAD3DAD4EAD5FAD16
:1007500029970E94E424C901DA0161968CAF9DAF0C
:10076000AEAFBFAF6197BC01CD012D962CAD3DADB5
:100770004EAD5FAD2D970E949E249B01AC01870179
:10078000FF24EE24ADA4BEA4CFA4D8A8C601AA27F6
:10079000BB2757016801A82AB92ACA2ADB2AA21650
:1007A000B306C406D50660F561966CAD7DAD8EAD21
:1007B0009FAD6197615070408040904061966CAFF2
:1007C0007DAF8EAF9FAF6197A20CB31CC41CD51C2C
:1007D000A214B304C404D50498F0A216B306C40648
:1007E000D50670F4615070408040904061966CAFC7
:1007F0007DAF8EAF9FAF6197A20CB31CC41CD51CFC
:10080000A21AB30AC40AD50AC601B50129962CADAD
:100810003DAD4EAD5FAD29970E94E4247B018C0174
:10082000C601B50129962CAD3DAD4EAD5FAD299702
:100830000E94E424C901DA015C016D01C601B50121
:100840002D962CAD3DAD4EAD5FAD2D970E949E24F3
:100850009B01AC018701FF24EE248DA59EA5AFA5C9
:10086000B8A9A070B070E82AF92A0A2B1B2BE2164F
:10087000F30604071507C0F40894A108B108C108DD
:10088000D108E20CF31C041D151DE214F304040549
:10089000150550F0E216F3060407150728F408942E
:1008A000A108B108C108D1086196ECACFDAC0EAD51
:1008B0001FAD6197D7019927882796018501082BDD
:1008C000192B2A2B3B2B09AB1AAB2BAB3CAB62C2CF
:1008D0006E147F048006910608F451C220E0E216EF
:1008E00020E0F20621E0020720E0120788F43FEF43
:1008F000E316F1040105110531F028F048E050E05D
:1009000060E070E017C040E050E060E070E012C0CE
:1009100040E0E41640E0F40640E0040741E014073C
:1009200028F048E150E060E070E004C040E150E0B1
:1009300060E070E0D801C701042E04C0B695A79509
:10094000979587950A94D2F785589F4FDC012C9193
:1009500030E2A32EB12CC12CD12CD601C501841BB1
:10096000950BA60BB70B821B9109A109B109009742
:10097000A105B10589F4E614F7040805190508F482
:10098000F2C16DA47EA48FA498A862147304840499
:10099000950408F0E8C1F3C16E968FAF6E97082EEC
:1009A00004C0EE0CFF1C001F111F0A94D2F76A2D21
:1009B000681BD201C101062E04C0B695A795979574
:1009C00087950A94D2F75C016D01AE28BF28C02A32
:1009D000D12AADA2BEA2CFA2D8A6720161016E96A5
:1009E0000FAC6E9704C0CC0CDD1CEE1CFF1C0A94EF
:1009F000D2F7C9A2DAA2EBA2FCA264015301062E2F
:100A000004C0D694C794B794A7940A94D2F7D4019B
:100A1000C3016E960FAC6E9704C0880F991FAA1F72
:100A2000BB1F0A94D2F7EDA4FEA40FA518A904C019
:100A300016950795F794E7946A95D2F73701480120
:100A4000682A792A8A2A9B2A6D8E7E8E8F8E98A29A
:100A5000EDA0FEA00FA118A53801882499249801C3
:100A600087012070307065960CAF1DAF2EAF3FAF81
:100A70006597C601B501A40193010E94E4247B019E
:100A80008C01C601B501A40193010E94E424C901AF
:100A9000DA011C012D01C201B10165962CAD3DADFD
:100AA0004EAD5FAD65970E949E249B01AC0187010E
:100AB000FF24EE24AD8CBE8CCF8CD8A0C601AA2713
:100AC000BB2757016801A82AB92ACA2ADB2AA2161D
:100AD000B306C406D50600F508942108310841087C
:100AE0005108EDA0FEA00FA118A5AE0CBF1CC01EA2
:100AF000D11EAE14BF04C006D10670F0A216B30614
:100B0000C406D50648F40894210831084108510864
:100B1000AE0CBF1CC01ED11EA21AB30AC40AD50A4D
:100B2000C601B501A40193010E94E4247B018C015C
:100B3000C601B501A40193010E94E424C901DA01B0
:100B40003C014D01C401B30165962CAD3DAD4EADE8
:100B50005FAD65970E949E249B01AC018701FF2435
:100B6000EE248D8D9E8DAF8DB8A1A070B070570111
:100B70006801A82AB92ACA2ADB2AA216B306C40623
:100B8000D50600F5089461087108810891086DA1E7
:100B90007EA18FA198A5A60EB71EC81ED91EA616A7
:100BA000B706C806D90670F0A216B306C406D50665
:100BB00048F408946108710881089108A60EB71ED0
:100BC000C81ED91ED601C501821B930BA40BB50B01
:100BD000898F9A8FAB8FBC8FD101992788276401A9
:100BE0005301A82AB92ACA2ADB2AA9AABAAACBAAD7
:100BF000DCAA860175012FEF3FEF40E050E0E222D2
:100C0000F32204231523A601662777276D964CAFA0
:100C10005DAF6EAF7FAF6D97A9A0BAA0CBA0DCA0EF
:100C20006FEF7FEF80E090E0A622B722C822D922A2
:100C300089A19AA1ABA1BCA11D0144245524C801DE
:100C4000B701A60195010E949E2469966CAF7DAF05
:100C50008EAF9FAF6997C801B701A20191010E94B1
:100C60009E243B014C016D966CAD7DAD8EAD9FAD6C
:100C70006D97A60195010E949E247B018C016D96C3
:100C80006CAD7DAD8EAD9FAD6D97A20191010E94BF
:100C90009E245B016C01A8019701260D371D481D9C
:100CA000591D69966CAC7DAC8EAC9FAC6997C40144
:100CB000AA27BB27280F391F4A1F5B1F2E153F0588
:100CC0004007510748F4E12CF12C61E0062F112D6B
:100CD000AE0CBF1CC01ED11ECA01AA27BB27BC0177
:100CE000CD016A0D7B1D8C1D9D1D698C7A8C8B8CB2
:100CF0009C8C661677068806990640F1661577057E
:100D00008805990509F043C0D90199278827699674
:100D10002CAD3DAD4EAD5FAD699740705070820F08
:100D2000931FA41FB51F2DA53EA54FA558A96E96CC
:100D30000FAC6E9704C0220F331F441F551F0A9437
:100D4000D2F7281739074A075B0708F509A91AA936
:100D50002BA93CA9015010402040304009AB1AABF0
:100D60002BAB3CAB14C066247724430121E030E078
:100D700040E050E029AB3AAB4BAB5CAB0BC0662418
:100D80007724430119AA1AAA1BAA1CAA03C0662425
:100D900077244301FE01719688E0DF011D928A9558
:100DA000E9F7A9A8BAA8CBA8DCA8A98ABA8ACB8AED
:100DB000DC8A6D8A7E8A8F8A988E29A93A894B8926
:100DC0005C89662D7E898F89988DC25ADF4FE2E15A
:100DD0000C942225ABE5B0E0E0EFF6E00C9406259C
:100DE000A8E04E010894811C911CF4016A2E119216
:100DF0006A94E9F729833A834B835C836D837E830E
:100E00008F839887CE010996FC011192AA95E9F784
:100E1000A986BA86CB86DC86ED86FE860F87188B80
:100E200029843A844B845C84AD84BE84CF84D88882
:100E300029813A814B815C8169962FAF69976A96C7
:100E40003FAF6A976B964FAF6B976C965FAF6C979F
:100E50006C966CAC7DAC8EAC9FAC6C9769AA7AAA90
:100E60008BAA9CAA6D817E818F8198853B014C0164
:100E70006DAA7EAA8FAA98AEA114B104C104D104B0
:100E800009F004C3621473048404950408F000C1DB
:100E900000E0201600E0300601E0400600E05006C9
:100EA00088F41FEF211631044104510439F030F069
:100EB00088E0E82EF12C012D112D18C0EE24FF241E
:100EC000870114C040E0241640E0340640E04406A8
:100ED00041E0540630F0B8E1EB2EF12C012D112D3C
:100EE00005C0A0E1EA2EF12C012D112DD201C10186
:100EF0000E2C04C0B695A795979587950A94D2F7BE
:100F000085589F4FDC012C9180E290E0A0E0B0E09A
:100F10008E199F09A00BB10B5C016D01A21AB108DB
:100F2000C108D108A9AEBAAECBAEDCAEA114B104F3
:100F3000C104D10409F43FC069AD062E04C0220CDF
:100F4000331C441C551C0A94D2F7A4019301062EAD
:100F500004C0220F331F441F551F0A94D2F780E2AA
:100F600090E08A199B096C96CCACDDACEEACFFAC82
:100F70006C9704C0F694E794D794C7948A95D2F7F7
:100F800087017601E22AF32A042B152BEDAAFEAA8B
:100F90000FAB18AF6C968CAD9DADAEADBFAD6C9781
:100FA00004C0880F991FAA1FBB1F6A95D2F789AB8F
:100FB0009AABABABBCAB320188249924B201A1013E
:100FC0006070707021964CAF5DAF6EAF7FAF2197B0
:100FD0006DA97EA98FA998ADA40193010E94E42474
:100FE0007B018C016DA97EA98FA998ADA401930105
:100FF0000E94E424CA01B90121962CAD3DAD4EAD4D
:101000005FAD21970E949E249B01AC018701FF24C4
:10101000EE24A9A8BAA8CBA8DCA8C601AA27BB279A
:1010200057016801A82AB92ACA2ADB2AA216B306E0
:10103000C406D50690F4A20CB31CC41CD51CA21483
:10104000B304C404D50448F0A216B306C406D506FA
:1010500020F4A20CB31CC41CD51CA21AB30AC40AE7
:10106000D50AC601B501A40193010E94E4247B01C5
:101070008C01C601B501A40193010E94E424CA01B8
:10108000B90121962CAD3DAD4EAD5FAD2197BAC1F2
:10109000211431044104510471F461E070E080E0F6
:1010A00090E020E030E040E050E00E94E424C901FC
:1010B000DA011C012D0100E0201600E0300601E0FD
:1010C000400600E0500688F41FEF21163104410469
:1010D000510439F030F068E0E62EF12C012D112D8D
:1010E00018C0EE24FF24870114C040E0241640E01D
:1010F000340640E0440641E0540630F058E1E52E65
:10110000F12C012D112D05C040E1E42EF12C012D13
:10111000112DD201C1010E2C04C0B695A79597954B
:1011200087950A94D2F785589F4FDC012C9130E2C5
:10113000A32EB12CC12CD12CD601C5018E199F092B
:10114000A00BB10B7C018D01E21AF1080109110914
:10115000E9AEFAAE0BAF1CAFE114F10401051105C5
:1011600039F464015301A218B308C408D508E2C0D9
:10117000F9AC6896FFAE68970F2C04C0220C331CA4
:10118000441C551C0A94D2F78A2D8F19640153010F
:10119000082E04C0D694C794B794A7940A94D2F7A3
:1011A000A401930104C0220F331F441F551FFA945A
:1011B000D2F76C966CAC7DAC8EAC9FAC6C9704C0D7
:1011C00096948794779467948A95D2F784017301F3
:1011D000E22AF32A042B152BEDA6FEA60FA718ABC7
:1011E000320188249924B201A101607070702596A3
:1011F0004CAF5DAF6EAF7FAF2597C601B501A401BF
:1012000093010E94E4247B018C01C601B501A40175
:1012100093010E94E424CA01B90125962CAD3DAD8D
:101220004EAD5FAD25970E949E249B01AC018701C6
:10123000FF24EE24ADA4BEA4CFA4D8A8C601AA273B
:10124000BB275C016D01AE28BF28C02AD12AA21697
:10125000B306C406D50690F4A20CB31CC41CD51C5E
:10126000A214B304C404D50448F0A216B306C406FD
:10127000D50620F4A20CB31CC41CD51CA21AB30AB8
:10128000C40AD50AC601B501A40193010E94E42451
:101290007B018C01C601B501A40193010E94E424E5
:1012A000CA01B90125962CAD3DAD4EAD5FAD259778
:1012B0000E949E249B01AC018701FF24EE248DA592
:1012C0009EA5AFA5B8A9A070B07057016801A82A63
:1012D000B92ACA2ADB2AA216B306C406D50690F498
:1012E000A20CB31CC41CD51CA214B304C404D504A2
:1012F00048F0A216B306C406D50620F4A20CB31C0F
:10130000C41CD51C6C96ECACFDAC0EAD1FAD6C973F
:1013100068960FAC689704C0EE0CFF1C001F111FED
:101320000A94D2F7E9AAFAAA0BAB1CABA21AB30A29
:10133000C40AD50A320188249924B201A10160703F
:10134000707029964CAF5DAF6EAF7FAF2997C60125
:10135000B501A40193010E94E4247B018C01C60124
:10136000B501A40193010E94E424CA01B9012996A0
:101370002CAD3DAD4EAD5FAD29970E949E249B01E3
:10138000AC018701FF24EE24A9A8BAA8CBA8DCA849
:10139000C601AA27BB2757016801A82AB92ACA2A69
:1013A000DB2AA216B306C406D50690F4A20CB31C21
:1013B000C41CD51CA214B304C404D50448F0A2165E
:1013C000B306C406D50620F4A20CB31CC41CD51C5D
:1013D000A21AB30AC40AD50AC601B501A401930131
:1013E0000E94E4247B018C01C601B501A401930194
:1013F0000E94E424CA01B90129962CAD3DAD4EAD41
:101400005FAD29970E949E249B01AC018701FF24B8
:10141000EE2489A99AA9ABA9BCA9A070B070E82A4A
:10142000F92A0A2B1B2BE216F3060407150790F482
:10143000E20CF31C041D151DE214F304040515054C
:1014400048F0E216F3060407150720F4E20CF31C3B
:10145000041D151DE21AF30A040B150BD801C70170
:1014600009AC04C0B695A795979587950A94D2F7CD
:10147000898B9A8BAB8BBC8B1D8A1E8A1F8A188E18
:10148000282F3A894B895C896D890CC36A147B04C7
:101490008C049D0408F409C300E0A01600E0B00627
:1014A00001E0C00600E0D00688F41FEFA116B104E9
:1014B000C104D10439F030F028E0E22EF12C012DE6
:1014C000112D18C0EE24FF24870114C040E0A4169B
:1014D00040E0B40640E0C40641E0D40630F098E1B4
:1014E000E92EF12C012D112D05C080E1E82EF12C03
:1014F000012D112DD601C5010E2C04C0B695A7955E
:10150000979587950A94D2F785589F4FDC012C91C7
:1015100080E290E0A0E0B0E08E199F09A00BB10B33
:10152000821B9109A109B1090097A105B10509F034
:101530004FC0A614B704C804D90458F06C96ECAC9C
:10154000FDAC0EAD1FAD6C97E214F3040405150558
:1015500068F16C96ECACFDAC0EAD1FAD6C97E2186B
:10156000F30804091509A40193012A193B094C0940
:101570005D09AA24BB2465016C966CAD7DAD8EAD72
:101580009FAD6C976E157F058007910728F4B1E039
:10159000AB2EB12CC12CD12CDA01C9018A199B09BF
:1015A000AC09BD098DAB9EABAFABB8AFE98AFA8A87
:1015B0000B8B1C8B6DA87EA88FA898AC6D8A7E8A39
:1015C0008F8A988E2E2D3A894B895C896DA96AC2C3
:1015D00067968FAF6797A6019501082E04C0220F6A
:1015E000331F441F551F0A94D2F7A0E2AA2EA81A4F
:1015F0006696AFAE6697D201C10104C0B695A795B5
:1016000097958795AA94D2F76C017D01C22AD32AB7
:10161000E42AF52AC9A6DAA6EBA6FCA68201710186
:1016200067960FAC679704C0EE0CFF1C001F111FDC
:101630000A94D2F7EDA2FEA20FA318A764015301EA
:1016400066960FAC669704C0D694C794B794A794D7
:101650000A94D2F7A401930167960FAC679704C070
:10166000220F331F441F551F0A94D2F76C968CAD7E
:101670009DADAEADBFAD6C9766960FAC669704C0DE
:10168000B695A795979587950A94D2F73C014D0199
:10169000622A732A842A952A69A27AA28BA29CA222
:1016A0006C96ECACFDAC0EAD1FAD6C9767960FACB5
:1016B000679704C0EE0CFF1C001F111F0A94D2F79D
:1016C000ED8EFE8E0F8F18A349A55AA56BA57CA59C
:1016D0003B0188249924607070702D964CAF5DAFEB
:1016E0006EAF7FAF2D97C601B501A40193010E9493
:1016F000E4247B018C01C601B501A40193010E9481
:10170000E424C901DA011C012D01C201B1012D96A9
:101710002CAD3DAD4EAD5FAD2D970E949E249B013B
:10172000AC018701FF24EE24A9A0BAA0CBA0DCA0C5
:10173000C601AA27BB2757016801A82AB92ACA2AC5
:10174000DB2AA216B306C406D50600F508942108C4
:10175000310841085108E9A4FAA40BA51CA5AE0C58
:10176000BF1CC01ED11EAE14BF04C006D10670F04F
:10177000A216B306C406D50648F408942108310819
:1017800041085108AE0CBF1CC01ED11EA21AB30ADC
:10179000C40AD50AC601B501A40193010E94E4243C
:1017A0007B018C01C601B501A40193010E94E424D0
:1017B000C901DA013C014D01C401B3012D962CADE4
:1017C0003DAD4EAD5FAD2D970E949E249B01AC01B7
:1017D0008701FF24EE2489A19AA1ABA1BCA1A0702E
:1017E000B07057016801A82AB92ACA2ADB2AA216B2
:1017F000B306C406D50600F508946108710881088F
:10180000910869A57AA58BA59CA5A60EB71EC81E32
:10181000D91EA616B706C806D90670F0A216B306DA
:10182000C406D50648F40894610871088108910837
:10183000A60EB71EC81ED91ED601C501821B930B6A
:10184000A40BB50B898F9A8FAB8FBC8FD1019927D1
:10185000882784017301E82AF92A0A2B1B2B4FEFF2
:10186000A42E4FEFB42EC12CD12CAE20BF20C0220D
:10187000D1227801002711276DA07EA08FA098A407
:101880004FEF5FEF60E070E06422752286229722BE
:101890008DA19EA1AFA1B8A5BD0188279927659606
:1018A0006CAF7DAF8EAF9FAF6597C601B501A40148
:1018B00093010E949E2461966CAF7DAF8EAF9FAF67
:1018C0006197C601B50165962CAD3DAD4EAD5FADDE
:1018D00065970E949E241B012C01C801B701A40139
:1018E00093010E949E245B016C01C801B7016596BB
:1018F0002CAD3DAD4EAD5FAD65970E949E247B0142
:101900008C01A6019501220D331D441D551D6196C4
:101910006CAC7DAC8EAC9FAC6197C401AA27BB2791
:10192000280F391F4A1F5B1F2A153B054C055D0513
:1019300048F4812C912CE1E0AE2EB12CE80CF91C7E
:101940000A1D1B1DCA01AA27BB2757016801A80E43
:10195000B91ECA1EDB1EA9013327222761968CAD52
:101960009DADAEADBFAD6197A070B070280F391FAF
:101970004A1F5B1FE98CFA8C0B8D1C8DEA14FB044B
:101980000C051D0570F0AE14BF04C006D10669F544
:101990006D8D7E8D8F8D98A16217730784079507D3
:1019A00020F5DA01C9016DA07EA08FA098A4861948
:1019B0009709A809B909E9A4FAA40BA51CA5AE18B2
:1019C000BF08C00AD10AEE24FF248701281739076F
:1019D0004A075B0728F421E0E22EF12C012D112D9E
:1019E000AE18BF08C00AD10A02C0DA01C9016D8C65
:1019F0007E8C8F8C98A0681A790A8A0A9B0A498D76
:101A00005A8D6B8D7C8D4A195B096C097D095A01D1
:101A10006B012224332421016D8D7E8D8F8D98A141
:101A2000661577058805990528F481E0282E312C64
:101A3000412C512C86017501E218F308040915099F
:101A4000A801970166960FAC669704C0220F331F5A
:101A5000441F551F0A94D2F7D401C30167960FACF7
:101A6000679704C0B695A795979587950A94D2F77E
:101A7000282B392B4A2B5B2B298B3A8B4B8B5C8B7E
:101A800067960FAC679704C016950795F794E7948F
:101A90000A94D2F7ED8AFE8A0F8B188F3A894B8908
:101AA0005C896E2D7E898F89988DC55ADF4FE2E162
:101AB0000C942225A0E0B0E0E0E6FDE00C940625C1
:101AC000DC012B01FA019C91923008F439C1EB0141
:101AD0008881823008F433C1943069F4843009F08D
:101AE0002FC111969C9111978981981709F428C1EB
:101AF000A3E7B0E025C1843009F421C18230A9F404
:101B0000923009F01DC19A01AD0188E0EA01099007
:101B1000AE01E90109929E018150C1F7E20189817C
:101B200011969C918923818308C1923009F407C1E1
:101B300012962D903C901397EB018A819B8114960D
:101B4000AD90BD90CD90DC901797EC80FD800E811C
:101B50001F819101281B390BB90137FF04C066278B
:101B60007727621B730B603271050CF061C012168F
:101B700013066CF537014801062E04C0969487942D
:101B8000779467940A94D2F721E030E040E050E087
:101B900004C0220F331F441F551F6A95D2F72150EE
:101BA0003040404050402E213F21402351232115F9
:101BB00031054105510521F021E030E040E050E0E1
:101BC00079018A01E628F728082919293CC0232B26
:101BD000D1F1260E371E35014601062E04C096941B
:101BE0008794779467940A94D2F721E030E040E03C
:101BF00050E004C0220F331F441F551F6A95D2F7CF
:101C000021503040404050402A213B214C215D2151
:101C1000211531054105510521F021E030E040E07A
:101C200050E059016A01A628B728C828D9280BC056
:101C3000821593052CF01C01AA24BB24650103C066
:101C4000EE24FF24870111969C91D20111968C916C
:101C5000981709F445C0992339F0A80197012A196A
:101C60003B094C095D0906C0A60195012E193F09E3
:101C7000400B510B57FD08C011823382228224830E
:101C80003583468357831DC081E08183338222825E
:101C900088279927DC01821B930BA40BB50B848347
:101CA0009583A683B7830DC0220F331F441F551F92
:101CB000248335834683578382819381019793835D
:101CC00082832481358146815781DA01C9010197D8
:101CD000A109B1098F5F9F4FAF4FBF4328F30BC0DE
:101CE000918333822282EA0CFB1C0C1D1D1DE482B1
:101CF000F5820683178383E08083248135814681C2
:101D0000578157FF1AC0C901AA2797FDA095BA2F7E
:101D100081709070A070B070569547953795279553
:101D2000822B932BA42BB52B84839583A683B78317
:101D300082819381019693838283DF0101C0D20166
:101D4000CD01CDB7DEB7E2E10C942225A0E2B0E0F0
:101D5000ECEAFEE00C94122569837A838B839C83E2
:101D60002D833E834F835887E9E0EE2EF12CEC0E55
:101D7000FD1ECE010196B7010E94B7118E010F5EC4
:101D80001F4FCE010596B8010E94B7118A8991E0D4
:101D900089278A8BC701B801AE01475E5F4F0E9459
:101DA0005A0D0E94E210A096E6E00C942E25A0E2C7
:101DB000B0E0EDEDFEE00C94122569837A838B830D
:101DC0009C832D833E834F835887F9E0EF2EF12CBF
:101DD000EC0EFD1ECE010196B7010E94B7118E01D7
:101DE0000F5E1F4FCE010596B8010E94B711C701C3
:101DF000B801AE01475E5F4F0E945A0D0E94E2108B
:101E0000A096E6E00C942E25A0E2B0E0EAE0FFE028
:101E10000C94062569837A838B839C832D833E8370
:101E20004F835887CE010196BE01675F7F4F0E94A6
:101E3000B711CE010596BE016F5E7F4F0E94B711AC
:101E40009985923088F089898230C8F0943019F4ED
:101E5000823051F404C0843029F4923081F483E755
:101E600090E0C6C0923049F420E09A858A899813A0
:101E700021E02A87CE010996BBC0823049F420E0D8
:101E80009A858A89981321E02A8BCE014196B0C0A9
:101E90002D843E844F8458886D887E888F88988CE6
:101EA000EE24FF248701AA24BB24650140E050E012
:101EB00060E070E0E0E0F0E0C10181709070892B9B
:101EC000E9F0E60CF71C081D191D9A01AB012A0D5B
:101ED0003B1D4C1D5D1D80E090E0A0E0B0E0E614ED
:101EE000F7040805190520F481E090E0A0E0B0E0D7
:101EF000BA01A901480F591F6A1F7B1FAA0CBB1CFE
:101F0000CC1CDD1C97FE08C081E090E0A0E0B0E0B2
:101F1000A82AB92ACA2ADB2A3196E032F10549F00B
:101F2000660C771C881C991C569447943794279408
:101F3000C3CFFA85EA892B893C898B859C85280F3C
:101F4000391F2E5F3F4F17C0CA0181709070892BD7
:101F500061F016950795F794E79480E090E0A0E093
:101F6000B0E8E82AF92A0A2B1B2B76956795579536
:101F700047952F5F3F4F77FDE7CF0CC0440F551FAC
:101F8000661F771F17FD4160EE0CFF1C001F111F1D
:101F900021503040403090E0590790E0690790E4CC
:101FA000790760F32B8F3C8FDB01CA018F7790702C
:101FB000A070B07080349105A105B10561F447FDB2
:101FC0000AC0E114F1040105110529F0405C5F4FDE
:101FD0006F4F7F4F40781A8EFE1711F081E08A8F85
:101FE0004D8F5E8F6F8F78A383E0898FCE014996E6
:101FF0000E94E210A096E2E10C942225A8E1B0E054
:10200000E4E0F0E10C94122569837A838B839C834E
:102010002D833E834F83588789E0E82EF12CEC0E08
:10202000FD1ECE010196B7010E94B7118E010F5E11
:102030001F4FCE010596B8010E94B71189858230E5
:1020400040F08989823028F0C701B8010E942F1220
:1020500001C08FEF6896E6E00C942E25A8E1B0E071
:10206000E4E3F0E10C94122569837A838B839C83EB
:102070002D833E834F83588789E0E82EF12CEC0EA8
:10208000FD1ECE010196B7010E94B7118E010F5EB1
:102090001F4FCE010596B8010E94B7118985823085
:1020A00040F08989823028F0C701B8010E942F12C0
:1020B00001C08FEF6896E6E00C942E25A8E1B0E011
:1020C000E4E6F0E10C94122569837A838B839C8388
:1020D0002D833E834F83588789E0E82EF12CEC0E48
:1020E000FD1ECE010196B7010E94B7118E010F5E51
:1020F0001F4FCE010596B8010E94B7118985823025
:1021000040F08989823028F0C701B8010E942F125F
:1021100001C081E06896E6E00C942E25ACE0B0E0CA
:10212000E4E9F0E10C94162569837A838B839C8320
:10213000CE010196BE016B5F7F4F0E94B7118D816A
:10214000823061F1823050F1843021F48E81882315
:1021500051F12EC02F81388537FD20C06E812F317F
:1021600031051CF06623F9F023C08EE190E0821B5C
:10217000930B29853A854B855C8504C05695479518
:10218000379527958A95D2F76623B1F050954095FB
:10219000309521953F4F4F4F5F4F0EC020E030E00C
:1021A00040E050E009C02FEF3FEF4FEF5FE704C082
:1021B00020E030E040E050E8B901CA012C96E2E0AE
:1021C0000C943225DF92EF92FF920F931F93FC0144
:1021D000E480F58006811781D1808081823048F4C7
:1021E00080E090E0A0E1B0E0E82AF92A0A2B1B2B5E
:1021F000A5C0843009F49FC0823021F4EE24FF246E
:10220000870105C0E114F1040105110519F4E0E0AE
:10221000F0E096C0628173819FEF623879070CF01D
:102220005BC022E83FEF261B370B2A3131052CF02B
:1022300020E030E040E050E02AC0B801A701022EC3
:1022400004C076956795579547950A94D2F781E033
:1022500090E0A0E0B0E004C0880F991FAA1FBB1F48
:102260002A95D2F70197A109B1098E219F21A023B8
:10227000B1230097A105B10521F081E090E0A0E035
:10228000B0E09A01AB01282B392B4A2B5B2BDA01EA
:10229000C9018F779070A070B07080349105A1054E
:1022A000B10539F427FF09C0205C3F4F4F4F5F4F06
:1022B00004C0215C3F4F4F4F5F4FE0E0F0E0203023
:1022C000A0E03A07A0E04A07A0E45A0710F0E1E0D6
:1022D000F0E079018A0127C06038710564F5FB01DF
:1022E000E158FF4FD801C7018F779070A070B07090
:1022F00080349105A105B10539F4E7FE0DC080E4F5
:1023000090E0A0E0B0E004C08FE390E0A0E0B0E097
:10231000E80EF91E0A1F1B1F17FF05C0169507952B
:10232000F794E794319687E016950795F794E7942C
:102330008A95D1F705C0EE24FF248701EFEFF0E086
:102340006E2F679566276795902F9F77D794DD242A
:10235000D7948E2F8695492F462B582F5D29B7018C
:10236000CA011F910F91FF90EF90DF900895FC013B
:10237000DB01408151812281622F6F7770E0221F43
:102380002227221F9381892F880F822B282F30E04C
:10239000991F9927991F11969C9311972115310523
:1023A000A9F5411551056105710511F482E037C0A9
:1023B00082E89FEF13969C938E9312979A01AB013C
:1023C00067E0220F331F441F551F6A95D1F783E042
:1023D0008C930DC0220F331F441F551F12968D91F1
:1023E0009C911397019713969C938E93129720308C
:1023F00080E0380780E0480780E4580758F31496D7
:102400002D933D934D935C93179708952F3F31057E
:1024100079F4411551056105710519F484E08C9337
:10242000089564FF03C081E08C9312C01C9210C019
:102430002F57304013963C932E93129783E08C9342
:1024400087E0440F551F661F771F8A95D1F7706488
:1024500014964D935D936D937C93179708951F93F6
:10246000DC01FB019C91923008F447C080818230EE
:1024700008F443C0943051F411961C91843099F5BE
:102480008181682F70E0611B71093FC0843021F0A9
:10249000923031F48230B9F18181882389F12DC0E5
:1024A00011961C9111978230F1F081811817D9F49F
:1024B00012962D913C9113978281938182179307F5
:1024C00094F028173907BCF014968D919D910D90CA
:1024D000BC91A02D24813581468157812817390769
:1024E0004A075B0718F4112341F00AC082179307CB
:1024F000A407B50740F4112319F061E070E005C0AE
:102500006FEF7FEF02C060E070E0CB011F91089594
:10251000DF93CF93CDB7DEB7A5E5B0E0E5E5F0E01A
:10252000808182608C93A5E5B0E0E5E5F0E08081F4
:102530008E7F8C93ABE5B0E0EBE5F0E080818064CA
:102540008C93AFE5B0E0EFE5F0E0808180688C939C
:10255000CF91DF910895DF93CF9300D00F92CDB745
:10256000DEB79A8389836B838B81882339F48981D1
:102570009A819093BD018093BC0113C08B818130FF
:1025800039F489819A819093BF018093BE0109C07B
:102590008B81823031F489819A819093C10180933B
:1025A000C0010F900F900F90CF91DF9108951F926F
:1025B0000F920FB60F9211242F933F934F935F9377
:1025C0006F937F938F939F93AF93BF93EF93FF93FB
:1025D000DF93CF93CDB7DEB78091BC019091BD0161
:1025E000009729F0E091BC01F091BD010995CF91D0
:1025F000DF91FF91EF91BF91AF919F918F917F916B
:102600006F915F914F913F912F910F900FBE0F905F
:102610001F9018951F920F920FB60F9211242F93AF
:102620003F934F935F936F937F938F939F93AF935A
:10263000BF93EF93FF93DF93CF93CDB7DEB7809136
:10264000BE019091BF01009729F0E091BE01F09189
:10265000BF010995CF91DF91FF91EF91BF91AF91AC
:102660009F918F917F916F915F914F913F912F91AA
:102670000F900FBE0F901F9018951F920F920FB6DC
:102680000F9211242F933F934F935F936F937F93F8
:102690008F939F93AF93BF93EF93FF93DF93CF936A
:1026A000CDB7DEB78091C0019091C101009729F0AC
:1026B000E091C001F091C1010995CF91DF91FF91A7
:1026C000EF91BF91AF919F918F917F916F915F91AA
:1026D0004F913F912F910F900FBE0F901F90189523
:1026E000DF93CF93CDB7DEB727970FB6F894DEBF51
:1026F0000FBECDBF89836A834B838B81813009F004
:1027000070C08981282F30E03F832E838E819F8186
:102710008230910551F12E813F812330310534F40F
:102720008E819F818130910561F0D3C02E813F81E0
:102730002330310571F18E819F8184309105E9F15B
:10274000C8C0AAE3B0E0EAE3F0E08081482F8A81C4
:10275000282F30E081E090E0022E02C0880F991F00
:102760000A94E2F7842B8C93B4C0A7E3B0E0E7E3CC
:10277000F0E08081482F8A81282F30E081E090E0CE
:10278000022E02C0880F991F0A94E2F7842B8C93C3
:10279000A0C0A4E3B0E0E4E3F0E08081482F8A81A8
:1027A000282F30E081E090E0022E02C0880F991FB0
:1027B0000A94E2F7842B8C938CC0A1E3B0E0E1E3B0
:1027C000F0E08081482F8A81282F30E081E090E07E
:1027D000022E02C0880F991F0A94E2F7842B8C9373
:1027E00078C08B81882309F074C08981282F30E05C
:1027F0003D832C838C819D818230910561F12C81F8
:102800003D812330310534F48C819D8181309105E7
:1028100069F05FC02C813D812330310589F18C81C5
:102820009D818430910509F440C053C0AAE3B0E013
:10283000EAE3F0E08081482F8A81282F30E081E0B0
:1028400090E0022E02C0880F991F0A94E2F780954B
:1028500084238C933EC0A7E3B0E0E7E3F0E08081FF
:10286000482F8A81282F30E081E090E0022E02C0BC
:10287000880F991F0A94E2F7809584238C9329C0CE
:10288000A4E3B0E0E4E3F0E08081482F8A81282FC0
:1028900030E081E090E0022E02C0880F991F0A9478
:1028A000E2F7809584238C9314C0A1E3B0E0E1E3C8
:1028B000F0E08081482F8A81282F30E081E090E08D
:1028C000022E02C0880F991F0A94E2F78095842394
:1028D0008C9327960FB6F894DEBF0FBECDBFCF9175
:1028E000DF910895DF93CF93CDB7DEB727970FB66B
:1028F000F894DEBF0FBECDBF89836A834B838B8183
:10290000813009F070C08981282F30E03F832E8309
:102910008E819F818230910551F12E813F8123303C
:10292000310534F48E819F818130910561F0D3C0EF
:102930002E813F812330310571F18E819F8184305A
:102940009105E9F1C8C0ABE3B0E0EBE3F0E08081D2
:10295000482F8A81282F30E081E090E0022E02C0CB
:10296000880F991F0A94E2F7842B8C93B4C0A8E3D4
:10297000B0E0E8E3F0E08081482F8A81282F30E042
:1029800081E090E0022E02C0880F991F0A94E2F7BE
:10299000842B8C93A0C0A5E3B0E0E5E3F0E0808158
:1029A000482F8A81282F30E081E090E0022E02C07B
:1029B000880F991F0A94E2F7842B8C938CC0A2E3B2
:1029C000B0E0E2E3F0E08081482F8A81282F30E0F8
:1029D00081E090E0022E02C0880F991F0A94E2F76E
:1029E000842B8C9378C08B81882309F074C08981F3
:1029F000282F30E03D832C838C819D81823091058E
:102A000061F12C813D812330310534F48C819D812D
:102A10008130910569F05FC02C813D812330310503
:102A200089F18C819D818430910509F440C053C0A7
:102A3000ABE3B0E0EBE3F0E08081482F8A81282F00
:102A400030E081E090E0022E02C0880F991F0A94C6
:102A5000E2F7809584238C933EC0A8E3B0E0E8E3DE
:102A6000F0E08081482F8A81282F30E081E090E0DB
:102A7000022E02C0880F991F0A94E2F780958423E2
:102A80008C9329C0A5E3B0E0E5E3F0E08081482F16
:102A90008A81282F30E081E090E0022E02C0880F6A
:102AA000991F0A94E2F7809584238C9314C0A2E3C3
:102AB000B0E0E2E3F0E08081482F8A81282F30E007
:102AC00081E090E0022E02C0880F991F0A94E2F77D
:102AD000809584238C9327960FB6F894DEBF0FBEA3
:102AE000CDBFCF91DF910895DF93CF9300D000D079
:102AF000CDB7DEB789836A838981282F30E03C8394
:102B00002B838B819C8182309105D9F02B813C8174
:102B10002330310534F48B819C818130910561F043
:102B20001EC02B813C812330310581F08B819C813B
:102B30008430910581F013C0EAE3F0E08A8180835C
:102B40000EC0E7E3F0E08A81808309C0E4E3F0E0AF
:102B50008A81808304C0E1E3F0E08A8180830F9062
:102B60000F900F900F90CF91DF910895DF93CF9347
:102B700000D000D0CDB7DEB789836A838981282F42
:102B800030E03C832B838B819C8182309105D9F08E
:102B90002B813C812330310534F48B819C81813041
:102BA000910561F01EC02B813C812330310581F0FD
:102BB0008B819C818430910581F013C0EBE3F0E0C0
:102BC0008A8180830EC0E8E3F0E08A81808309C0B7
:102BD000E5E3F0E08A81808304C0E2E3F0E08A81EB
:102BE00080830F900F900F900F90CF91DF910895F9
:102BF000DF93CF9300D000D0CDB7DEB789836A834F
:102C00008981282F30E03C832B838B819C8182300B
:102C1000910551F12B813C812330310534F48B81B6
:102C20009C818130910561F05AC02B813C81233019
:102C3000310571F18B819C8184309105E9F14FC0A0
:102C4000ABE3B0E0EBE3F0E08081482F8A81282FEE
:102C500030E081E090E0022E02C0880F991F0A94B4
:102C6000E2F784278C933BC0A8E3B0E0E8E3F0E010
:102C70008081482F8A81282F30E081E090E0022E69
:102C800002C0880F991F0A94E2F784278C9327C00B
:102C9000A5E3B0E0E5E3F0E08081482F8A81282FAA
:102CA00030E081E090E0022E02C0880F991F0A9464
:102CB000E2F784278C9313C0A2E3B0E0E2E3F0E0F4
:102CC0008081482F8A81282F30E081E090E0022E19
:102CD00002C0880F991F0A94E2F784278C930F9003
:102CE0000F900F900F90CF91DF910895DF93CF93C6
:102CF00000D000D00F92CDB7DEB78A836B831982E4
:102D00008A81282F30E03D832C834C815D814230C5
:102D1000510541F18C819D818330910534F42C81E2
:102D20003D812130310561F052C04C815D814330DD
:102D3000510551F18C819D8184309105B9F147C0D5
:102D4000E9E3F0E08081282F30E08B81882F90E04C
:102D5000A90102C0559547958A95E2F7CA0181708D
:102D6000898335C0E6E3F0E08081282F30E08B8155
:102D7000882F90E0A90102C0559547958A95E2F702
:102D8000CA018170898323C0E3E3F0E08081282FAA
:102D900030E08B81882F90E0A90102C055954795BE
:102DA0008A95E2F7CA018170898311C0E0E3F0E0FF
:102DB0008081282F30E08B81882F90E0A90102C00C
:102DC000559547958A95E2F7CA0181708983898173
:102DD0000F900F900F900F900F90CF91DF9108956B
:102DE000DF93CF9300D0CDB7DEB79A838983E98193
:102DF000FA818081E981FA819181692F41E00E9405
:102E00007013E981FA818081E981FA819281692FC9
:102E100041E00E947013E981FA818081E981FA81A1
:102E20009381692F41E00E947013E981FA818081CA
:102E3000E981FA819481692F41E00E9470130F901B
:102E40000F90CF91DF910895DF93CF9300D0CDB74E
:102E5000DEB79A838983E981FA818081E981FA81E9
:102E60009181692F40E00E947214E981FA8180818A
:102E7000E981FA819281692F40E00E947214E98110
:102E8000FA818081E981FA819381692F40E00E9473
:102E90007214E981FA818081E981FA819481692F34
:102EA00040E00E9472140F900F90CF91DF9108952F
:102EB000DF93CF9300D0CDB7DEB79A838983E981C2
:102EC000FA818081E981FA819181692F40E00E9435
:102ED0007214E981FA818081E981FA819281692FF6
:102EE00041E00E947214E981FA818081E981FA81CE
:102EF0009381692F41E00E947214E981FA818081F7
:102F0000E981FA819481692F40E00E9472140F9048
:102F10000F90CF91DF910895DF93CF9300D0CDB77D
:102F2000DEB79A838983E981FA818081E981FA8118
:102F30009181692F41E00E947214E981FA818081B8
:102F4000E981FA819281692F40E00E947214E9813F
:102F5000FA818081E981FA819381692F40E00E94A2
:102F60007214E981FA818081E981FA819481692F63
:102F700041E00E9472140F900F90CF91DF9108955D
:102F8000DF93CF9300D0CDB7DEB79A838983E981F1
:102F9000FA818081E981FA819181692F0E94F81577
:102FA000E981FA818081E981FA819281692F0E9409
:102FB000F815E981FA818081E981FA819381692F8D
:102FC0000E94F815E981FA818081E981FA81948172
:102FD000692F0E94F8150F900F90CF91DF910895FF
:102FE000DF93CF9300D0CDB7DEB71A8208C083E05D
:102FF0006A8141E00E9470138A818F5F8A838A818F
:103000008430A8F384E0898308C083E0698140E0CC
:103010000E94701389818F5F898389818830A8F32A
:1030200083E06FEF0E94B6150F900F90CF91DF9164
:103030000895DF93CF93CDB7DEB761970FB6F894BD
:10304000DEBF0FBECDBF198A188AB6C083E068897B
:1030500040E00E94721484E08F87A2C083E06F85F5
:103060000E947616882309F098C080E090E0A0EFD7
:10307000B1E48B879C87AD87BE876B857C858D850A
:103080009E8520E030E04AEF54E40E94040FDC010A
:10309000CB018F839887A987BA876F8178858985C7
:1030A0009A8520E030E040E85FE30E945E108823CC
:1030B0002CF481E090E09E838D833FC06F81788502
:1030C00089859A8520E03FEF4FE757E40E94FE0F85
:1030D00018164CF56B857C858D859E8520E030E04B
:1030E00040E251E40E94040FDC01CB01BC01CD01A0
:1030F0000E944900DC01CB019E838D830FC088ECC8
:1031000090E09C838B838B819C810197F1F79C835A
:103110008B838D819E8101979E838D838D819E817E
:10312000009769F714C06F81788589859A850E9418
:103130004900DC01CB019E838D838D819E819A8322
:10314000898389819A810197F1F79A83898383E042
:103150006F850E947616882301F583E06F850E94B3
:1031600076168823D1F38889482F50E08F85882FE1
:1031700090E09C0124503040CA01880F991F880FAD
:10318000991F820F931FFC01E558FE4F8081898BA8
:1031900083E0688941E00E9472148F858F5F8F877A
:1031A0008F85883008F45ACF83E0688941E00E9417
:1031B000721488898F5F888B8889843008F446CFA1
:1031C000898961960FB6F894DEBF0FBECDBFCF914F
:1031D000DF910895DF93CF93CDB7DEB76C970FB62D
:1031E000F894DEBF0FBECDBF81E06FEF0E94741573
:1031F00082E060E041E00E94701382E061E041E023
:103200000E94701382E062E041E00E94701380E04F
:1032100090E0A8E4B2E4898F9A8FAB8FBC8F698D60
:103220007A8D8B8D9C8D20E030E04AEF54E40E9433
:10323000040FDC01CB018D8B9E8BAF8BB88F6D891A
:103240007E898F89988D20E030E040E85FE30E941E
:103250005E1088232CF481E090E09C8B8B8B3FC028
:103260006D897E898F89988D20E03FEF4FE757E485
:103270000E94FE0F18164CF5698D7A8D8B8D9C8DF2
:1032800020E030E040E251E40E94040FDC01CB0179
:10329000BC01CD010E944900DC01CB019C8B8B8BD2
:1032A0000FC088EC90E09A8B898B89899A89019765
:1032B000F1F79A8B898B8B899C8901979C8B8B8BDF
:1032C0008B899C89009769F714C06D897E898F89E5
:1032D000988D0E944900DC01CB019C8B8B8B8B89E4
:1032E0009C89988B8F878F8598890197F1F7988BA8
:1032F0008F8788E30E94001A8CE00E94001A81E008
:103300000E94001A80E090E0A0E8BFE38B879C87D2
:10331000AD87BE876B857C858D859E8520E030E0FE
:103320004AEF54E40E94040FDC01CB018F8398879D
:10333000A987BA876F81788589859A8520E030E0F2
:1033400040E85FE30E945E1088232CF481E090E067
:103350009E838D833FC06F81788589859A8520E023
:103360003FEF4FE757E40E94FE0F18164CF56B85B0
:103370007C858D859E8520E030E040E251E40E940E
:10338000040FDC01CB01BC01CD010E944900DC012E
:10339000CB019E838D830FC088EC90E09C838B8350
:1033A0008B819C810197F1F79C838B838D819E811A
:1033B00001979E838D838D819E81009769F714C04C
:1033C0006F81788589859A850E944900DC01CB014F
:1033D0009E838D838D819E819A83898389819A8141
:1033E0000197F1F79A83898386E00E94001A6C9610
:1033F0000FB6F894DEBF0FBECDBFCF91DF91089519
:10340000DF93CF93CDB7DEB76D970FB6F894DEBFDD
:103410000FBECDBF8D8F82E060E040E00E9472144D
:1034200082E061E040E00E94721481E06D8D0E94B4
:10343000B61582E062E041E00E94721480E090E004
:10344000A0E8BFE3898F9A8FAB8FBC8F698D7A8D8F
:103450008B8D9C8D20E030E04AEF54E40E94040FF5
:10346000DC01CB018D8B9E8BAF8BB88F6D897E89F4
:103470008F89988D20E030E040E85FE30E945E1085
:1034800088232CF481E090E09C8B8B8B3FC06D896E
:103490007E898F89988D20E03FEF4FE757E40E94A7
:1034A000FE0F18164CF5698D7A8D8B8D9C8D20E062
:1034B00030E040E251E40E94040FDC01CB01BC018A
:1034C000CD010E944900DC01CB019C8B8B8B0FC08E
:1034D00088EC90E09A8B898B89899A890197F1F71A
:1034E0009A8B898B8B899C8901979C8B8B8B8B8981
:1034F0009C89009769F714C06D897E898F89988DA2
:103500000E944900DC01CB019C8B8B8B8B899C89B1
:10351000988B8F878F8598890197F1F7988B8F8784
:1035200082E062E040E00E94721480E090E0A0E857
:10353000BFE38B879C87AD87BE876B857C858D8538
:103540009E8520E030E04AEF54E40E94040FDC0145
:10355000CB018F839887A987BA876F817885898502
:103560009A8520E030E040E85FE30E945E10882307
:103570002CF481E090E09E838D833FC06F8178853D
:1035800089859A8520E03FEF4FE757E40E94FE0FC0
:1035900018164CF56B857C858D859E8520E030E086
:1035A00040E251E40E94040FDC01CB01BC01CD01DB
:1035B0000E944900DC01CB019E838D830FC088EC03
:1035C00090E09C838B838B819C810197F1F79C8396
:1035D0008B838D819E8101979E838D838D819E81BA
:1035E000009769F714C06F81788589859A850E9454
:1035F0004900DC01CB019E838D838D819E819A835E
:10360000898389819A810197F1F79A8389836D96DD
:103610000FB6F894DEBF0FBECDBFCF91DF910895F6
:10362000DF93CF93CDB7DEB76D970FB6F894DEBFBB
:103630000FBECDBF8D8F82E060E041E00E9472142A
:1036400082E061E040E00E94721481E06D8D0E9492
:10365000B61582E062E041E00E94721480E090E0E2
:10366000A0E8BFE3898F9A8FAB8FBC8F698D7A8D6D
:103670008B8D9C8D20E030E04AEF54E40E94040FD3
:10368000DC01CB018D8B9E8BAF8BB88F6D897E89D2
:103690008F89988D20E030E040E85FE30E945E1063
:1036A00088232CF481E090E09C8B8B8B3FC06D894C
:1036B0007E898F89988D20E03FEF4FE757E40E9485
:1036C000FE0F18164CF5698D7A8D8B8D9C8D20E040
:1036D00030E040E251E40E94040FDC01CB01BC0168
:1036E000CD010E944900DC01CB019C8B8B8B0FC06C
:1036F00088EC90E09A8B898B89899A890197F1F7F8
:103700009A8B898B8B899C8901979C8B8B8B8B895E
:103710009C89009769F714C06D897E898F89988D7F
:103720000E944900DC01CB019C8B8B8B8B899C898F
:10373000988B8F878F8598890197F1F7988B8F8762
:1037400082E062E040E00E94721480E090E0A0E835
:10375000BFE38B879C87AD87BE876B857C858D8516
:103760009E8520E030E04AEF54E40E94040FDC0123
:10377000CB018F839887A987BA876F8178858985E0
:103780009A8520E030E040E85FE30E945E108823E5
:103790002CF481E090E09E838D833FC06F8178851B
:1037A00089859A8520E03FEF4FE757E40E94FE0F9E
:1037B00018164CF56B857C858D859E8520E030E064
:1037C00040E251E40E94040FDC01CB01BC01CD01B9
:1037D0000E944900DC01CB019E838D830FC088ECE1
:1037E00090E09C838B838B819C810197F1F79C8374
:1037F0008B838D819E8101979E838D838D819E8198
:10380000009769F714C06F81788589859A850E9431
:103810004900DC01CB019E838D838D819E819A833B
:10382000898389819A810197F1F79A8389836D96BB
:103830000FB6F894DEBF0FBECDBFCF91DF910895D4
:10384000DF93CF930F92CDB7DEB7898389810E9432
:10385000101B0F90CF91DF910895DF93CF9300D08D
:10386000CDB7DEB79A8389830AC0E981FA81808166
:103870000E94101B89819A8101969A838983E9812C
:10388000FA818081882389F70F900F90CF91DF9183
:103890000895DF93CF9300D000D0CDB7DEB78983F2
:1038A0006A838A8181508A83898181508983898151
:1038B000282F30E03C832B838B819C81009731F053
:1038C0002B813C812130310531F009C08A8180583B
:1038D0000E94001A04C08A8180540E94001A0F902E
:1038E0000F900F900F90CF91DF910895DF93CF93BA
:1038F000CDB7DEB781E00E94001ACF91DF91089525
:10390000DF93CF930F92CDB7DEB789838981805D36
:103910000F90CF91DF910895EF92FF920F931F9335
:10392000DF93CF93CDB7DEB728970FB6F894DEBFFD
:103930000FBECDBF6D837E838F83988781E090E03B
:10394000A0E0B0E089839A83AB83BC8336C08981D1
:103950009A81AB81BC812AE030E040E050E0BC01BC
:10396000CD010E949E247B018C018D819E81AF81BF
:10397000B8852AE030E040E050E0BC01CD010E9473
:10398000C924DC01CB018E0D9F1DA01FB11F8983AF
:103990009A83AB83BC838D819E81AF81B8852AE0F9
:1039A00030E040E050E0BC01CD010E94C924DA01C2
:1039B000C9018D839E83AF83B8878D819E81AF813E
:1039C000B8850097A105B10511F689819A81AB816F
:1039D000BC81BC01CD0128960FB6F894DEBF0FBEA6
:1039E000CDBFCF91DF911F910F91FF90EF90089580
:1039F000AF92BF92CF92DF92EF92FF920F931F93FD
:103A0000DF93CF93CDB7DEB760970FB6F894DEBFE4
:103A10000FBECDBF29873A874B875C876D877E872E
:103A20008F87988B89859A85892B9B85892B9C8587
:103A3000892B9D85892B9E85892B9F85892B98892C
:103A4000892B882391F5A984BA84CB84DC84ED8406
:103A5000FE840F8518892A2D3B2D4C2D5D2D6E2D52
:103A60007F2D802F912F0F2EFAE0AF2EF02DBB244B
:103A7000CC24DD24EE24FF2400E010E00E94EA06BE
:103A8000A22EB32EC42ED52EE62EF72E082F192FD8
:103A90002A2D3B2D4C2D5D2D6E2D7F2D802F912FAE
:103AA000822F805D0E94101B9EC081E089831A8254
:103AB0001B821C821D821E821F82188689859A8520
:103AC000AB85BC85BC01CD010E948C1CDC01CB0107
:103AD00089839A83AB83BC83BB0F880B982FDC014F
:103AE0008D838E838F8388875EC0A980BA80CB80C8
:103AF000DC80ED80FE800F8118852A2D3B2D4C2D1A
:103B00005D2D6E2D7F2D802F912F0F2EFAE0AF2E81
:103B1000F02DBB24CC24DD24EE24FF2400E010E0B3
:103B20000E94EA06A22EB32EC42ED52EE62EF72E24
:103B3000082F192F2A2D3B2D4C2D5D2D6E2D7F2DFD
:103B4000802F912F822F805D0E94101BA980BA8048
:103B5000CB80DC80ED80FE800F8118852A2D3B2DE7
:103B60004C2D5D2D6E2D7F2D802F912F0F2EFAE085
:103B7000AF2EF02DBB24CC24DD24EE24FF2400E066
:103B800010E00E947500A22EB32EC42ED52EE62E74
:103B9000F72E082F192FA982BA82CB82DC82ED8200
:103BA000FE820F8318878981813009F09ECF8A8138
:103BB000882309F09ACF8B81882309F096CF8C81D6
:103BC000882309F092CF8D81882309F08ECF8E81D2
:103BD000882309F08ACF8F81882309F086CF8885D2
:103BE000882309F082CF60960FB6F894DEBF0FBE2F
:103BF000CDBFCF91DF911F910F91FF90EF90DF909C
:103C0000CF90BF90AF900895DF93CF9300D00F92E5
:103C1000CDB7DEB78A8387E089831DC08A81282FCC
:103C200030E08981992787FD9095A90102C05595BB
:103C300047958A95E2F7CA0181709070882319F040
:103C400051E35B8302C080E38B838B810E94101B56
:103C50008981815089838981882304F70F900F908F
:103C60000F90CF91DF910895DF93CF9300D000D0D4
:103C7000CDB7DEB78A837C836B838A81882F90E0FF
:103C8000880F991F880F991F880F991F80640E94C1
:103C9000001A19820EC08981282F30E08B819C8107
:103CA000FC01E20FF31F80810E94101B89818F5F4E
:103CB00089838981883078F380E80E94001A0F9008
:103CC0000F900F900F90CF91DF910895AF92BF9218
:103CD000CF92DF92EF92FF920F931F93DF93CF93D8
:103CE000CDB7DEB7A5970FB6F894DEBF0FBECDBF38
:103CF0008E8BCE010396988F8F8BE0E6F0E0FA8FE3
:103D0000E98FFAE0FB8FE98DFA8D0080898D9A8D1D
:103D100001969A8F898FEF89F88D00828F89988D0F
:103D20000196988F8F8B9B8D91509B8FEB8DEE23FF
:103D300051F7CE010D969D8F8C8FEAE6F0E0FF8F54
:103D4000EE8FF6E0F8A3EE8DFF8D00808E8D9F8DB7
:103D500001969F8F8E8FEC8DFD8D00828C8D9D8DB9
:103D600001969D8F8C8F98A1915098A3E8A1EE2386
:103D700051F7CE0143969AA389A3E0E7F0E0FCA3B4
:103D8000EBA3F3E0FDA3EBA1FCA100808BA19CA120
:103D900001969CA38BA3E9A1FAA1008289A19AA113
:103DA00001969AA389A39DA191509DA3EDA1EE2315
:103DB00051F71A8219828E8982958F708A838E8933
:103DC0008F708983CE0103960E942D1C8E89A82EA8
:103DD000BB24CC24DD24EE24FF2487012A2D3B2D97
:103DE0004C2D5D2D6E2D7F2D802F912F0E94F81C64
:103DF00082E061E00E94491CCE010D960E942D1CBC
:103E0000CE0143960E942D1C8A818A3048F482E0BC
:103E100068E00E94491C8A81805D0E94101B08C0D6
:103E200082E068E00E94491C8A81895C0E94101B24
:103E300089818A3048F482E069E00E94491C8981C6
:103E4000805D0E94101B08C082E069E00E94491C4E
:103E50008981895C0E94101BA5960FB6F894DEBF7D
:103E60000FBECDBFCF91DF911F910F91FF90EF90CB
:103E7000DF90CF90BF90AF900895DF93CF9300D0A5
:103E80000F92CDB7DEB789836A834B838A816B81BA
:103E90000E94491C89810E94101B0F900F900F9067
:103EA000CF91DF910895DF93CF9300D000D0CDB7AD
:103EB000DEB79A8389836B834C838B816C810E94EC
:103EC000491C89819A810E942D1C0F900F900F90A0
:103ED0000F90CF91DF910895AF92BF92CF92DF9272
:103EE000EF92FF920F931F93DF93CF93CDB7DEB77F
:103EF0002A970FB6F894DEBF0FBECDBF29833A8351
:103F00004B835C836D837E838F8398870987EA86E2
:103F100089856A850E94491CA980BA80CB80DC8093
:103F2000ED80FE800F8118852A2D3B2D4C2D5D2DB7
:103F30006E2D7F2D802F912F0E94F81C2A960FB690
:103F4000F894DEBF0FBECDBFCF91DF911F910F91CF
:103F5000FF90EF90DF90CF90BF90AF900895DF93E8
:103F6000CF9300D0CDB7DEB79A838983E981FA81F8
:103F7000908184E0692F40E00E947013E981FA810A
:103F8000908184E0692F41E00E9472140F900F909D
:103F9000CF91DF910895DF93CF93CDB7DEB76197CF
:103FA0000FB6F894DEBF0FBECDBF998B888BE88922
:103FB000F989908184E0692F0E9476168F878F851A
:103FC000882309F079C080E090E0A6E1B3E48B8714
:103FD0009C87AD87BE876B857C858D859E8520E01F
:103FE00030E04AEF54E40E94040FDC01CB018F83E0
:103FF0009887A987BA876F81788589859A8520E017
:1040000030E040E85FE30E945E1088232CF481E0FA
:1040100090E09E838D833FC06F81788589859A85E6
:1040200020E03FEF4FE757E40E94FE0F18164CF5D3
:104030006B857C858D859E8520E030E040E251E4F3
:104040000E94040FDC01CB01BC01CD010E9449009C
:10405000DC01CB019E838D830FC088EC90E09C83B4
:104060008B838B819C810197F1F79C838B838D815E
:104070009E8101979E838D838D819E81009769F734
:1040800014C06F81788589859A850E944900DC017A
:10409000CB019E838D838D819E819A8389838981C3
:1040A0009A810197F1F79A8389838F85882359F440
:1040B000E889F989118207C08F85813021F4E88968
:1040C000F98981E08183E889F989818161960FB658
:1040D000F894DEBF0FBECDBFCF91DF910895DF937F
:1040E000CF93CDB7DEB781E06FEF0E94741582E009
:1040F0006FEF0E947415CF91DF910895DF93CF93F6
:10410000CDB7DEB7A0970FB6F894DEBF0FBECDBF18
:1041100088A388A18A3008F090C088A18F8F88C0BA
:104120008F8D882F90E0880F991F880F991FFC01B1
:10413000ED56FE4F80819181A281B381982F81E05D
:10414000692F0E94B61580E090E0AAEFB3E4898F52
:104150009A8FAB8FBC8F698D7A8D8B8D9C8D20E073
:1041600030E04AEF54E40E94040FDC01CB018D8B58
:104170009E8BAF8BB88F6D897E898F89988D20E05B
:1041800030E040E85FE30E945E1088232CF481E079
:1041900090E09C8B8B8B3FC06D897E898F89988D39
:1041A00020E03FEF4FE757E40E94FE0F18164CF552
:1041B000698D7A8D8B8D9C8D20E030E040E251E45A
:1041C0000E94040FDC01CB01BC01CD010E9449001B
:1041D000DC01CB019C8B8B8B0FC088EC90E09A8B21
:1041E000898B89899A890197F1F79A8B898B8B89B9
:1041F0009C8901979C8B8B8B8B899C89009769F795
:1042000014C06D897E898F89988D0E944900DC01D8
:10421000CB019C8B8B8B8B899C89988B8F878F850F
:1042200098890197F1F7988B8F878F8D81508F8FA9
:104230008F8D882309F074CFB3C088A1833608F02E
:10424000AFC088A18F8FA8C08F8D9AE0692F0E9480
:10425000BD248E8F8F8D9AE0692F0E94BD24892FF7
:104260008D8F8E8D882F90E0880F991F880F991F52
:10427000FC01ED56FE4F80819181A281B381982F80
:1042800081E0692F0E94B6158D8D882F90E0880FF0
:10429000991F880F991FFC01ED56FE4F8081918177
:1042A000A281B381982F82E0692F0E94B61580E029
:1042B00090E0AAEFB3E48B879C87AD87BE876B85C0
:1042C0007C858D859E8520E030E04AEF54E40E9495
:1042D000040FDC01CB018F839887A987BA876F8190
:1042E000788589859A8520E030E040E85FE30E9488
:1042F0005E1088232CF481E090E09E838D833FC084
:104300006F81788589859A8520E03FEF4FE757E4F4
:104310000E94FE0F18164CF56B857C858D859E8559
:1043200020E030E040E251E40E94040FDC01CB01C8
:10433000BC01CD010E944900DC01CB019E838D832D
:104340000FC088EC90E09C838B838B819C810197CC
:10435000F1F79C838B838D819E8101979E838D8352
:104360008D819E81009769F714C06F81788589855A
:104370009A850E944900DC01CB019E838D838D814B
:104380009E819A83898389819A810197F1F79A8323
:1043900089838F8D81508F8F8F8D882309F054CF23
:1043A000A0960FB6F894DEBF0FBECDBFCF91DF91C0
:1043B0000895DF93CF930F92CDB7DEB7898381E065
:1043C000698141E00E9470130F90CF91DF910895B1
:1043D000DF93CF930F92CDB7DEB7898381E06981F8
:1043E0000E9474150F90CF91DF910895DF93CF93C2
:1043F0000F92CDB7DEB7898381E0698141E00E94E9
:1044000072140F90CF91DF910895DF93CF930F92A5
:10441000CDB7DEB7898381E069810E94B6150F9020
:10442000CF91DF910895DF93CF930F92CDB7DEB791
:10443000898381E0698140E00E9472140F90CF91DE
:10444000DF910895DF93CF930F92CDB7DEB78983C5
:1044500081E069810E94B6150F90CF91DF91089598
:10446000DF93CF93CDB7DEB763970FB6F894DEBF77
:104470000FBECDBF81E08F8781E0888B82E0898B82
:1044800083E08A8B84E08B8B8091BB01882F90E046
:1044900081709070882329F0CE010F960E945817E2
:1044A0000CC08091BB01882F90E0817090700097C4
:1044B00021F4CE010F960E948C1780E090E8ABE3C8
:1044C000B5E48B879C87AD87BE876B857C858D85A2
:1044D0009E8520E030E04AEF54E40E94040FDC01A6
:1044E000CB018F839887A987BA876F817885898563
:1044F0009A8520E030E040E85FE30E945E10882368
:104500002CF481E090E09E838D833FC06F8178859D
:1045100089859A8520E03FEF4FE757E40E94FE0F20
:1045200018164CF56B857C858D859E8520E030E0E6
:1045300040E251E40E94040FDC01CB01BC01CD013B
:104540000E944900DC01CB019E838D830FC088EC63
:1045500090E09C838B838B819C810197F1F79C83F6
:104560008B838D819E8101979E838D838D819E811A
:10457000009769F714C06F81788589859A850E94B4
:104580004900DC01CB019E838D838D819E819A83BE
:10459000898389819A810197F1F79A838983809130
:1045A000BB018F5F8093BB0163960FB6F894DEBFAB
:1045B0000FBECDBFCF91DF910895DF93CF93CDB7DD
:1045C000DEB763970FB6F894DEBF0FBECDBF81E0B4
:1045D0008F8781E0888B82E0898B83E08A8B84E0FF
:1045E0008B8B8091BB01813051F4CE010F960E94DC
:1045F00058178091BB018F5F8093BB010DC08091E4
:10460000BB01823049F4CE010F960E94C017809101
:10461000BB0181508093BB0180E090E8ABE3B5E43F
:104620008B879C87AD87BE876B857C858D859E85B6
:1046300020E030E04AEF54E40E94040FDC01CB019B
:104640008F839887A987BA876F81788589859A85AE
:1046500020E030E040E85FE30E945E1088232CF405
:1046600081E090E09E838D833FC06F81788589854E
:104670009A8520E03FEF4FE757E40E94FE0F18169F
:104680004CF56B857C858D859E8520E030E040E291
:1046900051E40E94040FDC01CB01BC01CD010E945A
:1046A0004900DC01CB019E838D830FC088EC90E034
:1046B0009C838B838B819C810197F1F79C838B83F7
:1046C0008D819E8101979E838D838D819E81009730
:1046D00069F714C06F81788589859A850E944900A1
:1046E000DC01CB019E838D838D819E819A8389839A
:1046F00089819A810197F1F79A83898363960FB62E
:10470000F894DEBF0FBECDBFCF91DF910895DF9348
:10471000CF93CDB7DEB7A3970FB6F894DEBF0FBE29
:10472000CDBF82E08D8FCE014D960E94AF1F0E94BB
:1047300088128DED92E260E00E94AB1281E08F8FD3
:1047400081E088A382E089A383E08AA384E08BA32D
:10475000CE014F960E94F01680E00E94D921CE0132
:104760004F960E94241780E00E94F62180E090E09E
:10477000AAEFB3E4898F9A8FAB8FBC8F698D7A8D46
:104780008B8D9C8D20E030E04AEF54E40E94040FB2
:10479000DC01CB018D8B9E8BAF8BB88F6D897E89B1
:1047A0008F89988D20E030E040E85FE30E945E1042
:1047B00088232CF481E090E09C8B8B8B3FC06D892B
:1047C0007E898F89988D20E03FEF4FE757E40E9464
:1047D000FE0F18164CF5698D7A8D8B8D9C8D20E01F
:1047E00030E040E251E40E94040FDC01CB01BC0147
:1047F000CD010E944900DC01CB019C8B8B8B0FC04B
:1048000088EC90E09A8B898B89899A890197F1F7D6
:104810009A8B898B8B899C8901979C8B8B8B8B893D
:104820009C89009769F714C06D897E898F89988D5E
:104830000E944900DC01CB019C8B8B8B8B899C896E
:10484000988B8F878F8598890197F1F7988B8F8741
:1048500080E00E94132280E090E0AAEFB3E48B870F
:104860009C87AD87BE876B857C858D859E8520E086
:1048700030E04AEF54E40E94040FDC01CB018F8347
:104880009887A987BA876F81788589859A8520E07E
:1048900030E040E85FE30E945E1088232CF481E062
:1048A00090E09E838D833FC06F81788589859A854E
:1048B00020E03FEF4FE757E40E94FE0F18164CF53B
:1048C0006B857C858D859E8520E030E040E251E45B
:1048D0000E94040FDC01CB01BC01CD010E94490004
:1048E000DC01CB019E838D830FC088EC90E09C831C
:1048F0008B838B819C810197F1F79C838B838D81C6
:104900009E8101979E838D838D819E81009769F79B
:1049100026CF6F81788589859A850E944900DC01C0
:10492000CB019E838D838D819E819A83898389812A
:104930009A810197F1F79A83898311CF629FD00101
:10494000739FF001829FE00DF11D649FE00DF11D4A
:10495000929FF00D839FF00D749FF00D659FF00DF9
:104960009927729FB00DE11DF91F639FB00DE11DE6
:10497000F91FBD01CF0111240895991B79E004C0EE
:10498000991F961708F0961B881F7A95C9F780958E
:10499000089597FB092E05260ED057FD04D014D09C
:1049A0000AD0001C38F450954095309521953F4F22
:1049B0004F4F5F4F0895F6F79095809570956195EC
:1049C0007F4F8F4F9F4F0895A1E21A2EAA1BBB1B4A
:1049D000FD010DC0AA1FBB1FEE1FFF1FA217B307CB
:1049E000E407F50720F0A21BB30BE40BF50B661FE1
:1049F000771F881F991F1A9469F7609570958095A5
:104A000090959B01AC01BD01CF0108952F923F927B
:104A10004F925F926F927F928F929F92AF92BF92CE
:104A2000CF92DF92EF92FF920F931F93CF93DF937A
:104A3000CDB7DEB7CA1BDB0B0FB6F894DEBF0FBED7
:104A4000CDBF09942A88398848885F846E847D8424
:104A50008C849B84AA84B984C884DF80EE80FD8026
:104A60000C811B81AA81B981CE0FD11D0FB6F8949C
:0E4A7000DEBF0FBECDBFED010895F894FFCF5D
:104A7E00446563696D616C3A20004865783A2000A0
:104A8E003078000000000000000000000102020368
:104A9E0003030304040404040404040505050505C6
:104AAE0005050505050505050505050606060606A3
:104ABE000606060606060606060606060606060688
:104ACE000606060606060606060606070707070773
:104ADE000707070707070707070707070707070758
:104AEE000707070707070707070707070707070748
:104AFE000707070707070707070707070707070738
:104B0E000707070707070707070707080808080822
:104B1E000808080808080808080808080808080807
:104B2E0008080808080808080808080808080808F7
:104B3E0008080808080808080808080808080808E7
:104B4E0008080808080808080808080808080808D7
:104B5E0008080808080808080808080808080808C7
:104B6E0008080808080808080808080808080808B7
:104B7E0008080808080808080808080808080808A7
:104B8E0008080808080808080808083738392F34B4
:104B9E0035362A3132332D43303D2B000007051FA9
:104BAE001010103F000000060000005B0000004FD8
:104BBE00000000660000006D0000007D0000000790
:0C4BCE000000007F0000006F00000001EC
:00000001FF
