:100000000C942A000C9434000C9434000C943400AA
:100010000C9434000C9434000C9434000C94340090
:100020000C9434000C9434000C9434000C94340080
:100030000C9434000C9434000C9434000C94340070
:100040000C9434000C9434000C9434000C94340060
:100050000C94340011241FBECFE5D8E0DEBFCDBF25
:100060000E9436000C944A000C940000DF93CF935A
:10007000CDB7DEB7EAE3F0E083E08083E7E3F0E0CA
:1000800083E08083EBE3F0E083E08083E8E3F0E06B
:080090001082FFCFF894FFCFAE
:00000001FF
